{
  "_format": "hh3-artifact-1",
  "contractName": "SPARKiNFT",
  "sourceName": "contracts/SPARKiNFT.sol",
  "abi": [
    {
      "inputs": [
        {
          "internalType": "address",
          "name": "_verifier",
          "type": "address"
        }
      ],
      "stateMutability": "nonpayable",
      "type": "constructor"
    },
    {
      "inputs": [
        {
          "internalType": "address",
          "name": "sender",
          "type": "address"
        },
        {
          "internalType": "uint256",
          "name": "tokenId",
          "type": "uint256"
        },
        {
          "internalType": "address",
          "name": "owner",
          "type": "address"
        }
      ],
      "name": "ERC721IncorrectOwner",
      "type": "error"
    },
    {
      "inputs": [
        {
          "internalType": "address",
          "name": "operator",
          "type": "address"
        },
        {
          "internalType": "uint256",
          "name": "tokenId",
          "type": "uint256"
        }
      ],
      "name": "ERC721InsufficientApproval",
      "type": "error"
    },
    {
      "inputs": [
        {
          "internalType": "address",
          "name": "approver",
          "type": "address"
        }
      ],
      "name": "ERC721InvalidApprover",
      "type": "error"
    },
    {
      "inputs": [
        {
          "internalType": "address",
          "name": "operator",
          "type": "address"
        }
      ],
      "name": "ERC721InvalidOperator",
      "type": "error"
    },
    {
      "inputs": [
        {
          "internalType": "address",
          "name": "owner",
          "type": "address"
        }
      ],
      "name": "ERC721InvalidOwner",
      "type": "error"
    },
    {
      "inputs": [
        {
          "internalType": "address",
          "name": "receiver",
          "type": "address"
        }
      ],
      "name": "ERC721InvalidReceiver",
      "type": "error"
    },
    {
      "inputs": [
        {
          "internalType": "address",
          "name": "sender",
          "type": "address"
        }
      ],
      "name": "ERC721InvalidSender",
      "type": "error"
    },
    {
      "inputs": [
        {
          "internalType": "uint256",
          "name": "tokenId",
          "type": "uint256"
        }
      ],
      "name": "ERC721NonexistentToken",
      "type": "error"
    },
    {
      "inputs": [
        {
          "internalType": "address",
          "name": "owner",
          "type": "address"
        }
      ],
      "name": "OwnableInvalidOwner",
      "type": "error"
    },
    {
      "inputs": [
        {
          "internalType": "address",
          "name": "account",
          "type": "address"
        }
      ],
      "name": "OwnableUnauthorizedAccount",
      "type": "error"
    },
    {
      "anonymous": false,
      "inputs": [
        {
          "indexed": true,
          "internalType": "uint256",
          "name": "tokenId",
          "type": "uint256"
        },
        {
          "indexed": true,
          "internalType": "address",
          "name": "owner",
          "type": "address"
        },
        {
          "indexed": false,
          "internalType": "string",
          "name": "botId",
          "type": "string"
        }
      ],
      "name": "AgentMinted",
      "type": "event"
    },
    {
      "anonymous": false,
      "inputs": [
        {
          "indexed": true,
          "internalType": "uint256",
          "name": "tokenId",
          "type": "uint256"
        },
        {
          "indexed": false,
          "internalType": "string",
          "name": "domainTags",
          "type": "string"
        },
        {
          "indexed": false,
          "internalType": "string",
          "name": "serviceOfferings",
          "type": "string"
        }
      ],
      "name": "AgentProfileUpdated",
      "type": "event"
    },
    {
      "anonymous": false,
      "inputs": [
        {
          "indexed": true,
          "internalType": "address",
          "name": "owner",
          "type": "address"
        },
        {
          "indexed": true,
          "internalType": "address",
          "name": "approved",
          "type": "address"
        },
        {
          "indexed": true,
          "internalType": "uint256",
          "name": "tokenId",
          "type": "uint256"
        }
      ],
      "name": "Approval",
      "type": "event"
    },
    {
      "anonymous": false,
      "inputs": [
        {
          "indexed": true,
          "internalType": "address",
          "name": "owner",
          "type": "address"
        },
        {
          "indexed": true,
          "internalType": "address",
          "name": "operator",
          "type": "address"
        },
        {
          "indexed": false,
          "internalType": "bool",
          "name": "approved",
          "type": "bool"
        }
      ],
      "name": "ApprovalForAll",
      "type": "event"
    },
    {
      "anonymous": false,
      "inputs": [
        {
          "indexed": true,
          "internalType": "address",
          "name": "from",
          "type": "address"
        },
        {
          "indexed": true,
          "internalType": "address",
          "name": "to",
          "type": "address"
        },
        {
          "indexed": true,
          "internalType": "uint256",
          "name": "tokenId",
          "type": "uint256"
        }
      ],
      "name": "Authorization",
      "type": "event"
    },
    {
      "anonymous": false,
      "inputs": [
        {
          "indexed": true,
          "internalType": "address",
          "name": "from",
          "type": "address"
        },
        {
          "indexed": true,
          "internalType": "address",
          "name": "to",
          "type": "address"
        },
        {
          "indexed": true,
          "internalType": "uint256",
          "name": "tokenId",
          "type": "uint256"
        }
      ],
      "name": "AuthorizationRevoked",
      "type": "event"
    },
    {
      "anonymous": false,
      "inputs": [
        {
          "indexed": true,
          "internalType": "uint256",
          "name": "tokenId",
          "type": "uint256"
        },
        {
          "indexed": false,
          "internalType": "uint256",
          "name": "newCount",
          "type": "uint256"
        }
      ],
      "name": "ContributionRecorded",
      "type": "event"
    },
    {
      "anonymous": false,
      "inputs": [
        {
          "indexed": true,
          "internalType": "address",
          "name": "user",
          "type": "address"
        },
        {
          "indexed": true,
          "internalType": "address",
          "name": "assistant",
          "type": "address"
        }
      ],
      "name": "DelegateAccess",
      "type": "event"
    },
    {
      "anonymous": false,
      "inputs": [
        {
          "indexed": true,
          "internalType": "address",
          "name": "previousOwner",
          "type": "address"
        },
        {
          "indexed": true,
          "internalType": "address",
          "name": "newOwner",
          "type": "address"
        }
      ],
      "name": "OwnershipTransferred",
      "type": "event"
    },
    {
      "anonymous": false,
      "inputs": [
        {
          "indexed": true,
          "internalType": "address",
          "name": "to",
          "type": "address"
        },
        {
          "indexed": true,
          "internalType": "uint256",
          "name": "tokenId",
          "type": "uint256"
        },
        {
          "indexed": false,
          "internalType": "bytes[]",
          "name": "sealedKeys",
          "type": "bytes[]"
        }
      ],
      "name": "PublishedSealedKey",
      "type": "event"
    },
    {
      "anonymous": false,
      "inputs": [
        {
          "indexed": true,
          "internalType": "address",
          "name": "from",
          "type": "address"
        },
        {
          "indexed": true,
          "internalType": "address",
          "name": "to",
          "type": "address"
        },
        {
          "indexed": true,
          "internalType": "uint256",
          "name": "tokenId",
          "type": "uint256"
        }
      ],
      "name": "Transfer",
      "type": "event"
    },
    {
      "anonymous": false,
      "inputs": [
        {
          "indexed": true,
          "internalType": "uint256",
          "name": "tokenId",
          "type": "uint256"
        },
        {
          "components": [
            {
              "internalType": "string",
              "name": "dataDescription",
              "type": "string"
            },
            {
              "internalType": "bytes32",
              "name": "dataHash",
              "type": "bytes32"
            }
          ],
          "indexed": false,
          "internalType": "struct IntelligentData[]",
          "name": "oldDatas",
          "type": "tuple[]"
        },
        {
          "components": [
            {
              "internalType": "string",
              "name": "dataDescription",
              "type": "string"
            },
            {
              "internalType": "bytes32",
              "name": "dataHash",
              "type": "bytes32"
            }
          ],
          "indexed": false,
          "internalType": "struct IntelligentData[]",
          "name": "newDatas",
          "type": "tuple[]"
        }
      ],
      "name": "Updated",
      "type": "event"
    },
    {
      "inputs": [
        {
          "internalType": "address",
          "name": "to",
          "type": "address"
        },
        {
          "internalType": "uint256",
          "name": "tokenId",
          "type": "uint256"
        }
      ],
      "name": "approve",
      "outputs": [],
      "stateMutability": "nonpayable",
      "type": "function"
    },
    {
      "inputs": [
        {
          "internalType": "uint256",
          "name": "tokenId",
          "type": "uint256"
        },
        {
          "internalType": "address",
          "name": "user",
          "type": "address"
        }
      ],
      "name": "authorizeUsage",
      "outputs": [],
      "stateMutability": "nonpayable",
      "type": "function"
    },
    {
      "inputs": [
        {
          "internalType": "uint256",
          "name": "tokenId",
          "type": "uint256"
        }
      ],
      "name": "authorizedUsersOf",
      "outputs": [
        {
          "internalType": "address[]",
          "name": "",
          "type": "address[]"
        }
      ],
      "stateMutability": "view",
      "type": "function"
    },
    {
      "inputs": [
        {
          "internalType": "address",
          "name": "owner",
          "type": "address"
        }
      ],
      "name": "balanceOf",
      "outputs": [
        {
          "internalType": "uint256",
          "name": "",
          "type": "uint256"
        }
      ],
      "stateMutability": "view",
      "type": "function"
    },
    {
      "inputs": [
        {
          "internalType": "address",
          "name": "assistant",
          "type": "address"
        }
      ],
      "name": "delegateAccess",
      "outputs": [],
      "stateMutability": "nonpayable",
      "type": "function"
    },
    {
      "inputs": [
        {
          "internalType": "uint256",
          "name": "tokenId",
          "type": "uint256"
        }
      ],
      "name": "getAgentProfile",
      "outputs": [
        {
          "components": [
            {
              "internalType": "string",
              "name": "botId",
              "type": "string"
            },
            {
              "internalType": "string",
              "name": "domainTags",
              "type": "string"
            },
            {
              "internalType": "string",
              "name": "serviceOfferings",
              "type": "string"
            },
            {
              "internalType": "uint256",
              "name": "reputationScore",
              "type": "uint256"
            },
            {
              "internalType": "uint256",
              "name": "contributionCount",
              "type": "uint256"
            },
            {
              "internalType": "uint256",
              "name": "createdAt",
              "type": "uint256"
            },
            {
              "internalType": "uint256",
              "name": "updatedAt",
              "type": "uint256"
            }
          ],
          "internalType": "struct SPARKiNFT.AgentProfile",
          "name": "",
          "type": "tuple"
        }
      ],
      "stateMutability": "view",
      "type": "function"
    },
    {
      "inputs": [
        {
          "internalType": "uint256",
          "name": "tokenId",
          "type": "uint256"
        }
      ],
      "name": "getApproved",
      "outputs": [
        {
          "internalType": "address",
          "name": "",
          "type": "address"
        }
      ],
      "stateMutability": "view",
      "type": "function"
    },
    {
      "inputs": [
        {
          "internalType": "address",
          "name": "user",
          "type": "address"
        }
      ],
      "name": "getDelegateAccess",
      "outputs": [
        {
          "internalType": "address",
          "name": "",
          "type": "address"
        }
      ],
      "stateMutability": "view",
      "type": "function"
    },
    {
      "inputs": [
        {
          "internalType": "address",
          "name": "from",
          "type": "address"
        },
        {
          "internalType": "address",
          "name": "to",
          "type": "address"
        },
        {
          "internalType": "uint256",
          "name": "tokenId",
          "type": "uint256"
        },
        {
          "components": [
            {
              "components": [
                {
                  "internalType": "bytes32",
                  "name": "dataHash",
                  "type": "bytes32"
                },
                {
                  "internalType": "bytes",
                  "name": "targetPubkey",
                  "type": "bytes"
                },
                {
                  "internalType": "bytes",
                  "name": "nonce",
                  "type": "bytes"
                },
                {
                  "internalType": "bytes",
                  "name": "proof",
                  "type": "bytes"
                }
              ],
              "internalType": "struct AccessProof",
              "name": "accessProof",
              "type": "tuple"
            },
            {
              "components": [
                {
                  "internalType": "enum OracleType",
                  "name": "oracleType",
                  "type": "uint8"
                },
                {
                  "internalType": "bytes32",
                  "name": "dataHash",
                  "type": "bytes32"
                },
                {
                  "internalType": "bytes",
                  "name": "sealedKey",
                  "type": "bytes"
                },
                {
                  "internalType": "bytes",
                  "name": "targetPubkey",
                  "type": "bytes"
                },
                {
                  "internalType": "bytes",
                  "name": "nonce",
                  "type": "bytes"
                },
                {
                  "internalType": "bytes",
                  "name": "proof",
                  "type": "bytes"
                }
              ],
              "internalType": "struct OwnershipProof",
              "name": "ownershipProof",
              "type": "tuple"
            }
          ],
          "internalType": "struct TransferValidityProof[]",
          "name": "proofs",
          "type": "tuple[]"
        }
      ],
      "name": "iTransferFrom",
      "outputs": [],
      "stateMutability": "nonpayable",
      "type": "function"
    },
    {
      "inputs": [
        {
          "internalType": "uint256",
          "name": "tokenId",
          "type": "uint256"
        }
      ],
      "name": "intelligentDatasOf",
      "outputs": [
        {
          "components": [
            {
              "internalType": "string",
              "name": "dataDescription",
              "type": "string"
            },
            {
              "internalType": "bytes32",
              "name": "dataHash",
              "type": "bytes32"
            }
          ],
          "internalType": "struct IntelligentData[]",
          "name": "",
          "type": "tuple[]"
        }
      ],
      "stateMutability": "view",
      "type": "function"
    },
    {
      "inputs": [
        {
          "internalType": "address",
          "name": "owner",
          "type": "address"
        },
        {
          "internalType": "address",
          "name": "operator",
          "type": "address"
        }
      ],
      "name": "isApprovedForAll",
      "outputs": [
        {
          "internalType": "bool",
          "name": "",
          "type": "bool"
        }
      ],
      "stateMutability": "view",
      "type": "function"
    },
    {
      "inputs": [
        {
          "internalType": "uint256",
          "name": "tokenId",
          "type": "uint256"
        },
        {
          "internalType": "address",
          "name": "user",
          "type": "address"
        }
      ],
      "name": "isAuthorized",
      "outputs": [
        {
          "internalType": "bool",
          "name": "",
          "type": "bool"
        }
      ],
      "stateMutability": "view",
      "type": "function"
    },
    {
      "inputs": [
        {
          "internalType": "address",
          "name": "to",
          "type": "address"
        },
        {
          "internalType": "string",
          "name": "botId",
          "type": "string"
        },
        {
          "internalType": "string",
          "name": "domainTags",
          "type": "string"
        },
        {
          "internalType": "string",
          "name": "serviceOfferings",
          "type": "string"
        },
        {
          "components": [
            {
              "internalType": "string",
              "name": "dataDescription",
              "type": "string"
            },
            {
              "internalType": "bytes32",
              "name": "dataHash",
              "type": "bytes32"
            }
          ],
          "internalType": "struct IntelligentData[]",
          "name": "iDatas",
          "type": "tuple[]"
        }
      ],
      "name": "mintAgent",
      "outputs": [
        {
          "internalType": "uint256",
          "name": "",
          "type": "uint256"
        }
      ],
      "stateMutability": "nonpayable",
      "type": "function"
    },
    {
      "inputs": [],
      "name": "name",
      "outputs": [
        {
          "internalType": "string",
          "name": "",
          "type": "string"
        }
      ],
      "stateMutability": "view",
      "type": "function"
    },
    {
      "inputs": [],
      "name": "owner",
      "outputs": [
        {
          "internalType": "address",
          "name": "",
          "type": "address"
        }
      ],
      "stateMutability": "view",
      "type": "function"
    },
    {
      "inputs": [
        {
          "internalType": "uint256",
          "name": "tokenId",
          "type": "uint256"
        }
      ],
      "name": "ownerOf",
      "outputs": [
        {
          "internalType": "address",
          "name": "",
          "type": "address"
        }
      ],
      "stateMutability": "view",
      "type": "function"
    },
    {
      "inputs": [
        {
          "internalType": "uint256",
          "name": "tokenId",
          "type": "uint256"
        }
      ],
      "name": "recordContribution",
      "outputs": [],
      "stateMutability": "nonpayable",
      "type": "function"
    },
    {
      "inputs": [],
      "name": "renounceOwnership",
      "outputs": [],
      "stateMutability": "nonpayable",
      "type": "function"
    },
    {
      "inputs": [
        {
          "internalType": "uint256",
          "name": "tokenId",
          "type": "uint256"
        },
        {
          "internalType": "address",
          "name": "user",
          "type": "address"
        }
      ],
      "name": "revokeAuthorization",
      "outputs": [],
      "stateMutability": "nonpayable",
      "type": "function"
    },
    {
      "inputs": [
        {
          "internalType": "address",
          "name": "from",
          "type": "address"
        },
        {
          "internalType": "address",
          "name": "to",
          "type": "address"
        },
        {
          "internalType": "uint256",
          "name": "tokenId",
          "type": "uint256"
        }
      ],
      "name": "safeTransferFrom",
      "outputs": [],
      "stateMutability": "nonpayable",
      "type": "function"
    },
    {
      "inputs": [
        {
          "internalType": "address",
          "name": "from",
          "type": "address"
        },
        {
          "internalType": "address",
          "name": "to",
          "type": "address"
        },
        {
          "internalType": "uint256",
          "name": "tokenId",
          "type": "uint256"
        },
        {
          "internalType": "bytes",
          "name": "data",
          "type": "bytes"
        }
      ],
      "name": "safeTransferFrom",
      "outputs": [],
      "stateMutability": "nonpayable",
      "type": "function"
    },
    {
      "inputs": [
        {
          "internalType": "address",
          "name": "operator",
          "type": "address"
        },
        {
          "internalType": "bool",
          "name": "approved",
          "type": "bool"
        }
      ],
      "name": "setApprovalForAll",
      "outputs": [],
      "stateMutability": "nonpayable",
      "type": "function"
    },
    {
      "inputs": [
        {
          "internalType": "bytes4",
          "name": "interfaceId",
          "type": "bytes4"
        }
      ],
      "name": "supportsInterface",
      "outputs": [
        {
          "internalType": "bool",
          "name": "",
          "type": "bool"
        }
      ],
      "stateMutability": "view",
      "type": "function"
    },
    {
      "inputs": [],
      "name": "symbol",
      "outputs": [
        {
          "internalType": "string",
          "name": "",
          "type": "string"
        }
      ],
      "stateMutability": "view",
      "type": "function"
    },
    {
      "inputs": [
        {
          "internalType": "uint256",
          "name": "tokenId",
          "type": "uint256"
        }
      ],
      "name": "tokenURI",
      "outputs": [
        {
          "internalType": "string",
          "name": "",
          "type": "string"
        }
      ],
      "stateMutability": "view",
      "type": "function"
    },
    {
      "inputs": [],
      "name": "totalMinted",
      "outputs": [
        {
          "internalType": "uint256",
          "name": "",
          "type": "uint256"
        }
      ],
      "stateMutability": "view",
      "type": "function"
    },
    {
      "inputs": [
        {
          "internalType": "address",
          "name": "from",
          "type": "address"
        },
        {
          "internalType": "address",
          "name": "to",
          "type": "address"
        },
        {
          "internalType": "uint256",
          "name": "tokenId",
          "type": "uint256"
        }
      ],
      "name": "transferFrom",
      "outputs": [],
      "stateMutability": "nonpayable",
      "type": "function"
    },
    {
      "inputs": [
        {
          "internalType": "address",
          "name": "newOwner",
          "type": "address"
        }
      ],
      "name": "transferOwnership",
      "outputs": [],
      "stateMutability": "nonpayable",
      "type": "function"
    },
    {
      "inputs": [
        {
          "internalType": "uint256",
          "name": "tokenId",
          "type": "uint256"
        },
        {
          "components": [
            {
              "internalType": "string",
              "name": "dataDescription",
              "type": "string"
            },
            {
              "internalType": "bytes32",
              "name": "dataHash",
              "type": "bytes32"
            }
          ],
          "internalType": "struct IntelligentData[]",
          "name": "newDatas",
          "type": "tuple[]"
        }
      ],
      "name": "updateData",
      "outputs": [],
      "stateMutability": "nonpayable",
      "type": "function"
    },
    {
      "inputs": [
        {
          "internalType": "uint256",
          "name": "tokenId",
          "type": "uint256"
        },
        {
          "internalType": "string",
          "name": "domainTags",
          "type": "string"
        },
        {
          "internalType": "string",
          "name": "serviceOfferings",
          "type": "string"
        }
      ],
      "name": "updateProfile",
      "outputs": [],
      "stateMutability": "nonpayable",
      "type": "function"
    },
    {
      "inputs": [
        {
          "internalType": "uint256",
          "name": "tokenId",
          "type": "uint256"
        },
        {
          "internalType": "uint256",
          "name": "newScore",
          "type": "uint256"
        }
      ],
      "name": "updateReputation",
      "outputs": [],
      "stateMutability": "nonpayable",
      "type": "function"
    },
    {
      "inputs": [],
      "name": "verifier",
      "outputs": [
        {
          "internalType": "contract IERC7857DataVerifier",
          "name": "",
          "type": "address"
        }
      ],
      "stateMutability": "view",
      "type": "function"
    }
  ],
  "bytecode": "0x60806040526001600d5534801562000015575f80fd5b50604051620034d2380380620034d2833981016040819052620000389162000153565b336040518060400160405280601081526020016f14d4105492c81a539195081059d95b9d60821b81525060405180604001604052806005815260200164535041524b60d81b815250815f908162000090919062000222565b5060016200009f828262000222565b5050506001600160a01b038116620000d057604051631e4fbdf760e01b81525f600482015260240160405180910390fd5b620000db8162000102565b50600780546001600160a01b0319166001600160a01b0392909216919091179055620002ea565b600680546001600160a01b038381166001600160a01b0319831681179093556040519116919082907f8be0079c531659141344cd1fd0a4f28419497f9722a3daafe3b4186f6b6457e0905f90a35050565b5f6020828403121562000164575f80fd5b81516001600160a01b03811681146200017b575f80fd5b9392505050565b634e487b7160e01b5f52604160045260245ffd5b600181811c90821680620001ab57607f821691505b602082108103620001ca57634e487b7160e01b5f52602260045260245ffd5b50919050565b601f8211156200021d575f81815260208120601f850160051c81016020861015620001f85750805b601f850160051c820191505b81811015620002195782815560010162000204565b5050505b505050565b81516001600160401b038111156200023e576200023e62000182565b62000256816200024f845462000196565b84620001d0565b602080601f8311600181146200028c575f8415620002745750858301515b5f19600386901b1c1916600185901b17855562000219565b5f85815260208120601f198616915b82811015620002bc578886015182559484019460019091019084016200029b565b5085821015620002da57878501515f19600388901b60f8161c191681555b5050505050600190811b01905550565b6131da80620002f85f395ff3fe608060405234801561000f575f80fd5b50600436106101e7575f3560e01c806388c6a95611610109578063c3612ef71161009e578063f098a7ae1161006e578063f098a7ae14610472578063f2fde38b14610492578063f5bc196f146104a5578063fa83d14e146104b8575f80fd5b8063c3612ef714610426578063c87b56dd14610439578063e985e9c51461044c578063eafcbf9c1461045f575f80fd5b8063a22cb465116100d9578063a22cb465146103e5578063a2309ff8146103f8578063b88d4fde14610400578063bc41807514610413575f80fd5b806388c6a956146103a65780638da5cb5b146103b957806395d89b41146103ca57806398bd57de146103d2575f80fd5b80632b7ac3f31161017f5780636352211e1161014f5780636352211e146103575780636bba415c1461036a57806370a082311461037d578063715018a61461039e575f80fd5b80632b7ac3f3146102d957806340fbd72f146102ec57806342842e0e1461030c578063609c6d7f1461031f575f80fd5b8063095ea7b3116101ba578063095ea7b3146102685780630e592fdd1461027b5780631aeb542f146102a657806323b872dd146102c6575f80fd5b806301ffc9a7146101eb5780630675f7631461021357806306fdde0314610228578063081812fc1461023d575b5f80fd5b6101fe6101f936600461216d565b6104cb565b60405190151581526020015b60405180910390f35b61022661022136600461218f565b610510565b005b610230610537565b60405161020a91906121fc565b61025061024b36600461220e565b6105c6565b6040516001600160a01b03909116815260200161020a565b610226610276366004612239565b6105ed565b610250610289366004612263565b6001600160a01b039081165f908152600860205260409020541690565b6102b96102b436600461220e565b6105fc565b60405161020a919061227e565b6102266102d43660046122ca565b610665565b600754610250906001600160a01b031681565b6102ff6102fa36600461220e565b6106f3565b60405161020a9190612371565b61022661031a3660046122ca565b61084c565b6101fe61032d366004612383565b5f918252600a602090815260408084206001600160a01b0393909316845291905290205460ff1690565b61025061036536600461220e565b61086b565b6102266103783660046123f8565b610875565b61039061038b366004612263565b610abb565b60405190815260200161020a565b610226610b00565b6102266103b436600461247c565b610b13565b6006546001600160a01b0316610250565b610230610bbe565b6102266103e0366004612263565b610bcd565b6102266103f33660046124ef565b610c23565b610390610c2e565b61022661040e3660046125b1565b610c43565b610390610421366004612658565b610c5b565b610226610434366004612383565b610ec8565b61023061044736600461220e565b6110c9565b6101fe61045a366004612726565b6111e6565b61022661046d366004612752565b611213565b61048561048036600461220e565b61152b565b60405161020a91906127ae565b6102266104a0366004612263565b6117b7565b6102266104b336600461220e565b6117f4565b6102266104c6366004612383565b61189b565b5f6001600160e01b031982166315d8811b60e21b14806104fb57506001600160e01b03198216631184d5cb60e11b145b8061050a575061050a826119fe565b92915050565b610518611a4d565b5f918252600c6020526040909120600381019190915542600690910155565b60605f80546105459061283b565b80601f01602080910402602001604051908101604052809291908181526020018280546105719061283b565b80156105bc5780601f10610593576101008083540402835291602001916105bc565b820191905f5260205f20905b81548152906001019060200180831161059f57829003601f168201915b5050505050905090565b5f6105d082611a7a565b505f828152600460205260409020546001600160a01b031661050a565b6105f8828233611ab2565b5050565b5f818152600b602090815260409182902080548351818402810184019094528084526060939283018282801561065957602002820191905f5260205f20905b81546001600160a01b0316815260019091019060200180831161063b575b50505050509050919050565b6001600160a01b03821661069357604051633250574960e11b81525f60048201526024015b60405180910390fd5b5f61069f838333611abf565b9050836001600160a01b0316816001600160a01b0316146106ed576040516364283d7b60e01b81526001600160a01b038086166004830152602482018490528216604482015260640161068a565b50505050565b5f818152600260205260409020546060906001600160a01b03166107505760405162461bcd60e51b8152602060048201526014602482015273151bdad95b88191bd95cc81b9bdd08195e1a5cdd60621b604482015260640161068a565b5f82815260096020908152604080832080548251818502810185019093528083529193909284015b82821015610841578382905f5260205f2090600202016040518060400160405290815f820180546107a89061283b565b80601f01602080910402602001604051908101604052809291908181526020018280546107d49061283b565b801561081f5780601f106107f65761010080835404028352916020019161081f565b820191905f5260205f20905b81548152906001019060200180831161080257829003601f168201915b5050505050815260200160018201548152505081526020019060010190610778565b505050509050919050565b61086683838360405180602001604052805f815250610c43565b505050565b5f61050a82611a7a565b3361087f8461086b565b6001600160a01b0316146108a55760405162461bcd60e51b815260040161068a90612873565b806108df5760405162461bcd60e51b815260206004820152600a602482015269456d707479206461746160b01b604482015260640161068a565b5f83815260096020908152604080832080548251818502810185019093528083529192909190849084015b828210156109d3578382905f5260205f2090600202016040518060400160405290815f8201805461093a9061283b565b80601f01602080910402602001604051908101604052809291908181526020018280546109669061283b565b80156109b15780601f10610988576101008083540402835291602001916109b1565b820191905f5260205f20905b81548152906001019060200180831161099457829003601f168201915b505050505081526020016001820154815250508152602001906001019061090a565b5050505f8681526009602052604081209293506109f19291506120d2565b5f5b82811015610a62575f858152600960205260409020848483818110610a1a57610a1a612896565b9050602002810190610a2c91906128aa565b81546001810183555f9283526020909220909160020201610a4d82826129d6565b50508080610a5a90612ad5565b9150506109f3565b505f848152600c602052604090819020426006909101555184907f0950ea0f010b000d7cfc9ef49213d3385d8512dd80de45ce2fbf8fc123c4f9a490610aad90849087908790612b73565b60405180910390a250505050565b5f6001600160a01b038216610ae5576040516322718ad960e21b81525f600482015260240161068a565b506001600160a01b03165f9081526003602052604090205490565b610b08611a4d565b610b115f611bb1565b565b33610b1d8661086b565b6001600160a01b031614610b435760405162461bcd60e51b815260040161068a90612873565b5f858152600c6020526040902060018101610b5f858783612921565b5060028101610b6f838583612921565b5042600682015560405186907fb6797532cd72c15eba6bec2cd9dc1e0f16c7e86effd0dbf27d5115c6fdafcdba90610bae908890889088908890612c05565b60405180910390a2505050505050565b6060600180546105459061283b565b335f8181526008602052604080822080546001600160a01b0319166001600160a01b03861690811790915590519092917f57a5f7ce01affd949c0efd1484fd811d31ff5c8ca21c7006f5f4de7292f26de491a350565b6105f8338383611c02565b5f6001600d54610c3e9190612c36565b905090565b610c4e848484610665565b6106ed3385858585611ca0565b5f6001600160a01b038a16610ca15760405162461bcd60e51b815260206004820152600c60248201526b5a65726f206164647265737360a01b604482015260640161068a565b600d80545f9182610cb183612ad5565b919050559050610cc18b82611dc8565b5f5b83811015610d32575f828152600960205260409020858583818110610cea57610cea612896565b9050602002810190610cfc91906128aa565b81546001810183555f9283526020909220909160020201610d1d82826129d6565b50508080610d2a90612ad5565b915050610cc3565b506040518060e001604052808b8b8080601f0160208091040260200160405190810160405280939291908181526020018383808284375f92019190915250505090825250604080516020601f8c018190048102820181019092528a815291810191908b908b90819084018382808284375f92019190915250505090825250604080516020601f8a01819004810282018101909252888152918101919089908990819084018382808284375f920182905250938552505050602080830182905260408084018390524260608501819052608090940193909352848252600c90522081518190610e209082612c49565b5060208201516001820190610e359082612c49565b5060408201516002820190610e4a9082612c49565b50606082015181600301556080820151816004015560a0820151816005015560c082015181600601559050508a6001600160a01b0316817f4163bfac127160e0f9f156ad45f09360dfe365c4fcdf394c40bdfece890ee6f78c8c604051610eb2929190612cff565b60405180910390a39a9950505050505050505050565b33610ed28361086b565b6001600160a01b031614610ef85760405162461bcd60e51b815260040161068a90612873565b5f828152600a602090815260408083206001600160a01b038516845290915290205460ff16610f5a5760405162461bcd60e51b815260206004820152600e60248201526d139bdd08185d5d1a1bdc9a5e995960921b604482015260640161068a565b5f828152600a602090815260408083206001600160a01b03851684528252808320805460ff19169055848352600b9091528120905b815481101561108c57826001600160a01b0316828281548110610fb457610fb4612896565b5f918252602090912001546001600160a01b03160361107a5781548290610fdd90600190612c36565b81548110610fed57610fed612896565b905f5260205f20015f9054906101000a90046001600160a01b031682828154811061101a5761101a612896565b905f5260205f20015f6101000a8154816001600160a01b0302191690836001600160a01b031602179055508180548061105557611055612d12565b5f8281526020902081015f1990810180546001600160a01b031916905501905561108c565b8061108481612ad5565b915050610f8f565b5060405183906001600160a01b0384169033907fd1662978c81e15f621e7a38524048493c6e86d91a24a29619d164bef0a8d0a98905f90a4505050565b60606110d482611a7a565b505f82815260096020526040902080541580159061111d57505f815f8154811061110057611100612896565b905f5260205f2090600202015f0180546111199061283b565b9050115b156111d157805f8154811061113457611134612896565b905f5260205f2090600202015f01805461114d9061283b565b80601f01602080910402602001604051908101604052809291908181526020018280546111799061283b565b80156111c45780601f1061119b576101008083540402835291602001916111c4565b820191905f5260205f20905b8154815290600101906020018083116111a757829003601f168201915b5050505050915050919050565b505060408051602081019091525f8152919050565b6001600160a01b039182165f90815260056020908152604080832093909416825291909152205460ff1690565b846001600160a01b03166112268461086b565b6001600160a01b03161461124c5760405162461bcd60e51b815260040161068a90612873565b6001600160a01b0384166112965760405162461bcd60e51b8152602060048201526011602482015270125b9d985b1a59081c9958da5c1a595b9d607a1b604482015260640161068a565b806112d25760405162461bcd60e51b815260206004820152600c60248201526b456d7074792070726f6f667360a01b604482015260640161068a565b600754604051634ca5fd6960e01b81525f916001600160a01b031690634ca5fd69906113049086908690600401612dec565b5f604051808303815f875af115801561131f573d5f803e3d5ffd5b505050506040513d5f823e601f3d908101601f191682016040526113469190810190612f4f565b5f8581526009602052604090205481519192501461139d5760405162461bcd60e51b81526020600482015260146024820152730a0e4dedecc40c6deeadce840dad2e6dac2e8c6d60631b604482015260640161068a565b5f81516001600160401b038111156113b7576113b761251f565b6040519080825280602002602001820160405280156113ea57816020015b60608152602001906001900390816113d55790505b5090505f5b82518110156114d4575f86815260096020526040902080548290811061141757611417612896565b905f5260205f2090600202016001015483828151811061143957611439612896565b60200260200101515f0151146114865760405162461bcd60e51b8152602060048201526012602482015271088c2e8c240d0c2e6d040dad2e6dac2e8c6d60731b604482015260640161068a565b82818151811061149857611498612896565b6020026020010151602001518282815181106114b6576114b6612896565b602002602001018190525080806114cc90612ad5565b9150506113ef565b506114e0878787611de1565b84866001600160a01b03167f77ac1306adadb66d303dd0baa0534083040b337a1212922215a3ccbaf6fec56c8360405161151a91906130f7565b60405180910390a350505050505050565b6115676040518060e001604052806060815260200160608152602001606081526020015f81526020015f81526020015f81526020015f81525090565b5f828152600260205260409020546001600160a01b03166115c15760405162461bcd60e51b8152602060048201526014602482015273151bdad95b88191bd95cc81b9bdd08195e1a5cdd60621b604482015260640161068a565b5f828152600c602052604090819020815160e081019092528054829082906115e89061283b565b80601f01602080910402602001604051908101604052809291908181526020018280546116149061283b565b801561165f5780601f106116365761010080835404028352916020019161165f565b820191905f5260205f20905b81548152906001019060200180831161164257829003601f168201915b505050505081526020016001820180546116789061283b565b80601f01602080910402602001604051908101604052809291908181526020018280546116a49061283b565b80156116ef5780601f106116c6576101008083540402835291602001916116ef565b820191905f5260205f20905b8154815290600101906020018083116116d257829003601f168201915b505050505081526020016002820180546117089061283b565b80601f01602080910402602001604051908101604052809291908181526020018280546117349061283b565b801561177f5780601f106117565761010080835404028352916020019161177f565b820191905f5260205f20905b81548152906001019060200180831161176257829003601f168201915b505050505081526020016003820154815260200160048201548152602001600582015481526020016006820154815250509050919050565b6117bf611a4d565b6001600160a01b0381166117e857604051631e4fbdf760e01b81525f600482015260240161068a565b6117f181611bb1565b50565b336117fe8261086b565b6001600160a01b0316146118245760405162461bcd60e51b815260040161068a90612873565b5f818152600c6020526040812060040180549161184083612ad5565b90915550505f818152600c60205260409081902042600682015560040154905182917f67dfde09f3efc3d99fc751b2f6bfcb66fa7b11436f9374765379c0a86cfccf6f9161189091815260200190565b60405180910390a250565b336118a58361086b565b6001600160a01b0316146118cb5760405162461bcd60e51b815260040161068a90612873565b6001600160a01b0381166119105760405162461bcd60e51b815260206004820152600c60248201526b5a65726f206164647265737360a01b604482015260640161068a565b5f828152600a602090815260408083206001600160a01b038516845290915290205460ff16156119775760405162461bcd60e51b8152602060048201526012602482015271105b1c9958591e48185d5d1a1bdc9a5e995960721b604482015260640161068a565b5f828152600a602090815260408083206001600160a01b038516808552908352818420805460ff19166001908117909155868552600b845282852080549182018155855292842090920180546001600160a01b0319168317905551849233917f8a1c60ca1a16acd72d841a74fa5905de3938132b0b2ff6cb385a7e69af345fc99190a45050565b5f6001600160e01b031982166380ac58cd60e01b1480611a2e57506001600160e01b03198216635b5e139f60e01b145b8061050a57506301ffc9a760e01b6001600160e01b031983161461050a565b6006546001600160a01b03163314610b115760405163118cdaa760e01b815233600482015260240161068a565b5f818152600260205260408120546001600160a01b03168061050a57604051637e27328960e01b81526004810184905260240161068a565b6108668383836001611e8e565b5f828152600260205260408120546001600160a01b0390811690831615611aeb57611aeb818486611f92565b6001600160a01b03811615611b2557611b065f855f80611e8e565b6001600160a01b0381165f90815260036020526040902080545f190190555b6001600160a01b03851615611b53576001600160a01b0385165f908152600360205260409020805460010190555b5f8481526002602052604080822080546001600160a01b0319166001600160a01b0389811691821790925591518793918516917fddf252ad1be2c89b69c2b068fc378daa952ba7f163c4a11628f55a4df523b3ef91a4949350505050565b600680546001600160a01b038381166001600160a01b0319831681179093556040519116919082907f8be0079c531659141344cd1fd0a4f28419497f9722a3daafe3b4186f6b6457e0905f90a35050565b6001600160a01b038216611c3457604051630b61174360e31b81526001600160a01b038316600482015260240161068a565b6001600160a01b038381165f81815260056020908152604080832094871680845294825291829020805460ff191686151590811790915591519182527f17307eab39ab6107e8899845ad3d59bd9653f200f220920489ca2b5937696c31910160405180910390a3505050565b6001600160a01b0383163b15611dc157604051630a85bd0160e11b81526001600160a01b0384169063150b7a0290611ce2908890889087908790600401613157565b6020604051808303815f875af1925050508015611d1c575060408051601f3d908101601f19168201909252611d1991810190613189565b60015b611d83573d808015611d49576040519150601f19603f3d011682016040523d82523d5f602084013e611d4e565b606091505b5080515f03611d7b57604051633250574960e11b81526001600160a01b038516600482015260240161068a565b805160208201fd5b6001600160e01b03198116630a85bd0160e11b14611dbf57604051633250574960e11b81526001600160a01b038516600482015260240161068a565b505b5050505050565b6105f8828260405180602001604052805f815250611ff6565b6001600160a01b038216611e0a57604051633250574960e11b81525f600482015260240161068a565b5f611e1683835f611abf565b90506001600160a01b038116611e4257604051637e27328960e01b81526004810183905260240161068a565b836001600160a01b0316816001600160a01b0316146106ed576040516364283d7b60e01b81526001600160a01b038086166004830152602482018490528216604482015260640161068a565b8080611ea257506001600160a01b03821615155b15611f63575f611eb184611a7a565b90506001600160a01b03831615801590611edd5750826001600160a01b0316816001600160a01b031614155b8015611ef05750611eee81846111e6565b155b15611f195760405163a9fbf51f60e01b81526001600160a01b038416600482015260240161068a565b8115611f615783856001600160a01b0316826001600160a01b03167f8c5be1e5ebec7d5bd14f71427d1e84f3dd0314c0f7b2291e5b200ac8c7c3b92560405160405180910390a45b505b50505f90815260046020526040902080546001600160a01b0319166001600160a01b0392909216919091179055565b611f9d83838361200d565b610866576001600160a01b038316611fcb57604051637e27328960e01b81526004810182905260240161068a565b60405163177e802f60e01b81526001600160a01b03831660048201526024810182905260440161068a565b6120008383612071565b610866335f858585611ca0565b5f6001600160a01b038316158015906120695750826001600160a01b0316846001600160a01b03161480612046575061204684846111e6565b8061206957505f828152600460205260409020546001600160a01b038481169116145b949350505050565b6001600160a01b03821661209a57604051633250574960e11b81525f600482015260240161068a565b5f6120a683835f611abf565b90506001600160a01b03811615610866576040516339e3563760e11b81525f600482015260240161068a565b5080545f8255600202905f5260205f20908101906117f191905b8082111561210e575f6120ff8282612112565b505f60018201556002016120ec565b5090565b50805461211e9061283b565b5f825580601f1061212d575050565b601f0160209004905f5260205f20908101906117f191905b8082111561210e575f8155600101612145565b6001600160e01b0319811681146117f1575f80fd5b5f6020828403121561217d575f80fd5b813561218881612158565b9392505050565b5f80604083850312156121a0575f80fd5b50508035926020909101359150565b5f5b838110156121c95781810151838201526020016121b1565b50505f910152565b5f81518084526121e88160208601602086016121af565b601f01601f19169290920160200192915050565b602081525f61218860208301846121d1565b5f6020828403121561221e575f80fd5b5035919050565b6001600160a01b03811681146117f1575f80fd5b5f806040838503121561224a575f80fd5b823561225581612225565b946020939093013593505050565b5f60208284031215612273575f80fd5b813561218881612225565b602080825282518282018190525f9190848201906040850190845b818110156122be5783516001600160a01b031683529284019291840191600101612299565b50909695505050505050565b5f805f606084860312156122dc575f80fd5b83356122e781612225565b925060208401356122f781612225565b929592945050506040919091013590565b5f81518084526020808501808196508360051b810191508286015f5b85811015612364578284038952815160408151818752612346828801826121d1565b92880151968801969096525098850198935090840190600101612324565b5091979650505050505050565b602081525f6121886020830184612308565b5f8060408385031215612394575f80fd5b8235915060208301356123a681612225565b809150509250929050565b5f8083601f8401126123c1575f80fd5b5081356001600160401b038111156123d7575f80fd5b6020830191508360208260051b85010111156123f1575f80fd5b9250929050565b5f805f6040848603121561240a575f80fd5b8335925060208401356001600160401b03811115612426575f80fd5b612432868287016123b1565b9497909650939450505050565b5f8083601f84011261244f575f80fd5b5081356001600160401b03811115612465575f80fd5b6020830191508360208285010111156123f1575f80fd5b5f805f805f60608688031215612490575f80fd5b8535945060208601356001600160401b03808211156124ad575f80fd5b6124b989838a0161243f565b909650945060408801359150808211156124d1575f80fd5b506124de8882890161243f565b969995985093965092949392505050565b5f8060408385031215612500575f80fd5b823561250b81612225565b9150602083013580151581146123a6575f80fd5b634e487b7160e01b5f52604160045260245ffd5b60405160e081016001600160401b03811182821017156125555761255561251f565b60405290565b604051601f8201601f191681016001600160401b03811182821017156125835761258361251f565b604052919050565b5f6001600160401b038211156125a3576125a361251f565b50601f01601f191660200190565b5f805f80608085870312156125c4575f80fd5b84356125cf81612225565b935060208501356125df81612225565b92506040850135915060608501356001600160401b03811115612600575f80fd5b8501601f81018713612610575f80fd5b803561262361261e8261258b565b61255b565b818152886020838501011115612637575f80fd5b816020840160208301375f6020838301015280935050505092959194509250565b5f805f805f805f805f60a08a8c031215612670575f80fd5b893561267b81612225565b985060208a01356001600160401b0380821115612696575f80fd5b6126a28d838e0161243f565b909a50985060408c01359150808211156126ba575f80fd5b6126c68d838e0161243f565b909850965060608c01359150808211156126de575f80fd5b6126ea8d838e0161243f565b909650945060808c0135915080821115612702575f80fd5b5061270f8c828d016123b1565b915080935050809150509295985092959850929598565b5f8060408385031215612737575f80fd5b823561274281612225565b915060208301356123a681612225565b5f805f805f60808688031215612766575f80fd5b853561277181612225565b9450602086013561278181612225565b93506040860135925060608601356001600160401b038111156127a2575f80fd5b6124de888289016123b1565b602081525f825160e060208401526127ca6101008401826121d1565b90506020840151601f19808584030160408601526127e883836121d1565b925060408601519150808584030160608601525061280682826121d1565b91505060608401516080840152608084015160a084015260a084015160c084015260c084015160e08401528091505092915050565b600181811c9082168061284f57607f821691505b60208210810361286d57634e487b7160e01b5f52602260045260245ffd5b50919050565b6020808252600990820152682737ba1037bbb732b960b91b604082015260600190565b634e487b7160e01b5f52603260045260245ffd5b5f8235603e198336030181126128be575f80fd5b9190910192915050565b601f821115610866575f81815260208120601f850160051c810160208610156128ee5750805b601f850160051c820191505b81811015611dbf578281556001016128fa565b5f19600383901b1c191660019190911b1790565b6001600160401b038311156129385761293861251f565b61294c83612946835461283b565b836128c8565b5f601f841160018114612978575f85156129665750838201355b612970868261290d565b845550611dc1565b5f83815260209020601f19861690835b828110156129a85786850135825560209485019460019092019101612988565b50868210156129c4575f1960f88860031b161c19848701351681555b505060018560011b0183555050505050565b8135601e198336030181126129e9575f80fd5b820180356001600160401b03811115612a00575f80fd5b60208136038184011315612a12575f80fd5b612a2682612a20865461283b565b866128c8565b5f601f831160018114612a54575f8415612a4257508482018301355b612a4c858261290d565b875550612aaf565b5f86815260209020601f19851690835b82811015612a85578785018601358255938501936001909101908501612a64565b5085821015612aa3575f1960f88760031b161c198585890101351681555b505060018460011b0186555b50508085013560018501555050505050565b634e487b7160e01b5f52601160045260245ffd5b5f60018201612ae657612ae6612ac1565b5060010190565b5f808335601e19843603018112612b02575f80fd5b83016020810192503590506001600160401b03811115612b20575f80fd5b8036038213156123f1575f80fd5b81835281816020850137505f828201602090810191909152601f909101601f19169091010190565b5f8235603e19833603018112612b6a575f80fd5b90910192915050565b5f6040808352612b8581840187612308565b602084820381860152818683528183019050818760051b840101885f5b89811015612bf557858303601f19018452612bbd828c612b56565b612bc78182612aed565b898652612bd78a87018284612b2e565b92880135958801959095525093850193925090840190600101612ba2565b50909a9950505050505050505050565b604081525f612c18604083018688612b2e565b8281036020840152612c2b818587612b2e565b979650505050505050565b8181038181111561050a5761050a612ac1565b81516001600160401b03811115612c6257612c6261251f565b612c7681612c70845461283b565b846128c8565b602080601f831160018114612ca4575f8415612c925750858301515b612c9c858261290d565b865550611dbf565b5f85815260208120601f198616915b82811015612cd257888601518255948401946001909101908401612cb3565b5085821015612cef57878501515f19600388901b60f8161c191681555b5050505050600190811b01905550565b602081525f612069602083018486612b2e565b634e487b7160e01b5f52603160045260245ffd5b5f823560be19833603018112612b6a575f80fd5b5f813560028110612d49575f80fd5b835260208281013590840152612d626040830183612aed565b60c06040860152612d7760c086018284612b2e565b915050612d876060840184612aed565b8583036060870152612d9a838284612b2e565b92505050612dab6080840184612aed565b8583036080870152612dbe838284612b2e565b92505050612dcf60a0840184612aed565b85830360a0870152612de2838284612b2e565b9695505050505050565b60208082528181018390525f906040808401600586901b850182018785805b89811015612eee57603f19808a8603018652612e27848d612b56565b8035607e19823603018112612e3a578485fd5b88875281018035878a0152612e518a820182612aed565b6080606081818c0152612e6860c08c018486612b2e565b9350612e768d860186612aed565b9350878c860301838d0152612e8c858583612b2e565b945050612e9b81860186612aed565b955092505050848983030160a08a0152612eb6828483612b2e565b9450505050612ec789820182612d26565b905085820389870152612eda8282612d3a565b968901969550505091860191600101612e0b565b50919998505050505050505050565b5f82601f830112612f0c575f80fd5b8151612f1a61261e8261258b565b818152846020838601011115612f2e575f80fd5b6120698260208301602087016121af565b8051612f4a81612225565b919050565b5f6020808385031215612f60575f80fd5b82516001600160401b0380821115612f76575f80fd5b818501915085601f830112612f89575f80fd5b815181811115612f9b57612f9b61251f565b8060051b612faa85820161255b565b9182528381018501918581019089841115612fc3575f80fd5b86860192505b838310156130ea57825185811115612fdf575f80fd5b860160e0818c03601f19011215612ff5575f8081fd5b612ffd612533565b88820151815260408083015188811115613016575f8081fd5b6130248e8c83870101612efd565b8b840152506060808401518981111561303c575f8081fd5b61304a8f8d83880101612efd565b8385015250608091508184015189811115613064575f8081fd5b6130728f8d83880101612efd565b82850152505060a0613085818501612f3f565b8284015260c09150818401518981111561309e575f8081fd5b6130ac8f8d83880101612efd565b82850152505060e0830151888111156130c4575f8081fd5b6130d28e8c83870101612efd565b91830191909152508352509186019190860190612fc9565b9998505050505050505050565b5f602080830181845280855180835260408601915060408160051b87010192508387015f5b8281101561314a57603f198886030184526131388583516121d1565b9450928501929085019060010161311c565b5092979650505050505050565b6001600160a01b03858116825284166020820152604081018390526080606082018190525f90612de2908301846121d1565b5f60208284031215613199575f80fd5b81516121888161215856fea2646970667358221220f3472d52d0775b8e27a9751d3f6bb942b467a951de39eb8cc1f595350a8197b664736f6c63430008140033",
  "linkReferences": {},
  "deployedLinkReferences": {},
  "immutableReferences": {},
  "inputSourceName": "project/contracts/SPARKiNFT.sol",
  "buildInfoId": "solc-0_8_20-30c85e3006c1e845bb54bda834f6afd866eac0fc"
}