{
  "_format": "hh3-artifact-1",
  "contractName": "MockVerifier",
  "sourceName": "contracts/MockVerifier.sol",
  "abi": [
    {
      "inputs": [
        {
          "components": [
            {
              "components": [
                {
                  "internalType": "bytes32",
                  "name": "dataHash",
                  "type": "bytes32"
                },
                {
                  "internalType": "bytes",
                  "name": "targetPubkey",
                  "type": "bytes"
                },
                {
                  "internalType": "bytes",
                  "name": "nonce",
                  "type": "bytes"
                },
                {
                  "internalType": "bytes",
                  "name": "proof",
                  "type": "bytes"
                }
              ],
              "internalType": "struct AccessProof",
              "name": "accessProof",
              "type": "tuple"
            },
            {
              "components": [
                {
                  "internalType": "enum OracleType",
                  "name": "oracleType",
                  "type": "uint8"
                },
                {
                  "internalType": "bytes32",
                  "name": "dataHash",
                  "type": "bytes32"
                },
                {
                  "internalType": "bytes",
                  "name": "sealedKey",
                  "type": "bytes"
                },
                {
                  "internalType": "bytes",
                  "name": "targetPubkey",
                  "type": "bytes"
                },
                {
                  "internalType": "bytes",
                  "name": "nonce",
                  "type": "bytes"
                },
                {
                  "internalType": "bytes",
                  "name": "proof",
                  "type": "bytes"
                }
              ],
              "internalType": "struct OwnershipProof",
              "name": "ownershipProof",
              "type": "tuple"
            }
          ],
          "internalType": "struct TransferValidityProof[]",
          "name": "proofs",
          "type": "tuple[]"
        }
      ],
      "name": "verifyTransferValidity",
      "outputs": [
        {
          "components": [
            {
              "internalType": "bytes32",
              "name": "dataHash",
              "type": "bytes32"
            },
            {
              "internalType": "bytes",
              "name": "sealedKey",
              "type": "bytes"
            },
            {
              "internalType": "bytes",
              "name": "targetPubkey",
              "type": "bytes"
            },
            {
              "internalType": "bytes",
              "name": "wantedKey",
              "type": "bytes"
            },
            {
              "internalType": "address",
              "name": "accessAssistant",
              "type": "address"
            },
            {
              "internalType": "bytes",
              "name": "accessProofNonce",
              "type": "bytes"
            },
            {
              "internalType": "bytes",
              "name": "ownershipProofNonce",
              "type": "bytes"
            }
          ],
          "internalType": "struct TransferValidityProofOutput[]",
          "name": "",
          "type": "tuple[]"
        }
      ],
      "stateMutability": "pure",
      "type": "function"
    }
  ],
  "bytecode": "0x608060405234801561000f575f80fd5b506106828061001d5f395ff3fe608060405234801561000f575f80fd5b5060043610610029575f3560e01c80634ca5fd691461002d575b5f80fd5b61004061003b3660046103c8565b610056565b60405161004d919061047a565b60405180910390f35b60605f8267ffffffffffffffff81111561007257610072610570565b6040519080825280602002602001820160405280156100ed57816020015b6100da6040518060e001604052805f80191681526020016060815260200160608152602001606081526020015f6001600160a01b0316815260200160608152602001606081525090565b8152602001906001900390816100905790505b5090505f5b838110156103c0576040518060e0016040528086868481811061011757610117610584565b90506020028101906101299190610598565b61013390806105b6565b35815260200186868481811061014b5761014b610584565b905060200281019061015d9190610598565b61016b9060208101906105ca565b6101799060408101906105de565b8080601f0160208091040260200160405190810160405280939291908181526020018383808284375f920191909152505050908252506020018686848181106101c4576101c4610584565b90506020028101906101d69190610598565b6101e49060208101906105ca565b6101f29060608101906105de565b8080601f0160208091040260200160405190810160405280939291908181526020018383808284375f9201919091525050509082525060200186868481811061023d5761023d610584565b905060200281019061024f9190610598565b61025990806105b6565b6102679060208101906105de565b8080601f0160208091040260200160405190810160405280939291908181526020018383808284375f92018290525093855250505060208201526040018686848181106102b6576102b6610584565b90506020028101906102c89190610598565b6102d290806105b6565b6102e09060408101906105de565b8080601f0160208091040260200160405190810160405280939291908181526020018383808284375f9201919091525050509082525060200186868481811061032b5761032b610584565b905060200281019061033d9190610598565b61034b9060208101906105ca565b6103599060808101906105de565b8080601f0160208091040260200160405190810160405280939291908181526020018383808284375f92019190915250505091525082518390839081106103a2576103a2610584565b602002602001018190525080806103b890610628565b9150506100f2565b509392505050565b5f80602083850312156103d9575f80fd5b823567ffffffffffffffff808211156103f0575f80fd5b818501915085601f830112610403575f80fd5b813581811115610411575f80fd5b8660208260051b8501011115610425575f80fd5b60209290920196919550909350505050565b5f81518084525f5b8181101561045b5760208185018101518683018201520161043f565b505f602082860101526020601f19601f83011685010191505092915050565b5f6020808301818452808551808352604092508286019150828160051b8701018488015f5b8381101561056257603f19898403018552815160e08151855288820151818a8701526104cd82870182610437565b91505087820151858203898701526104e58282610437565b915050606080830151868303828801526104ff8382610437565b6080858101516001600160a01b03169089015260a0858101518983038a830152919450925090506105308382610437565b9250505060c0808301519250858203818701525061054e8183610437565b96890196945050509086019060010161049f565b509098975050505050505050565b634e487b7160e01b5f52604160045260245ffd5b634e487b7160e01b5f52603260045260245ffd5b5f8235603e198336030181126105ac575f80fd5b9190910192915050565b5f8235607e198336030181126105ac575f80fd5b5f823560be198336030181126105ac575f80fd5b5f808335601e198436030181126105f3575f80fd5b83018035915067ffffffffffffffff82111561060d575f80fd5b602001915036819003821315610621575f80fd5b9250929050565b5f6001820161064557634e487b7160e01b5f52601160045260245ffd5b506001019056fea264697066735822122061502283b9165ff7c6d0907f76d978fe4151248e4e342510c3ecea6b995981fc64736f6c63430008140033",
  "linkReferences": {},
  "deployedLinkReferences": {},
  "immutableReferences": {},
  "inputSourceName": "project/contracts/MockVerifier.sol",
  "buildInfoId": "solc-0_8_20-a8f3611024d2b6cedbdb02dc8bfe085124b49ca2"
}