{
  "_format": "hh3-artifact-1",
  "contractName": "SPARKPayrollVault",
  "sourceName": "contracts/hedera/SPARKPayrollVault.sol",
  "abi": [
    {
      "inputs": [
        {
          "internalType": "uint256",
          "name": "_defaultAmount",
          "type": "uint256"
        },
        {
          "internalType": "uint256",
          "name": "_defaultInterval",
          "type": "uint256"
        }
      ],
      "stateMutability": "nonpayable",
      "type": "constructor"
    },
    {
      "inputs": [],
      "name": "AlreadyCancelled",
      "type": "error"
    },
    {
      "inputs": [],
      "name": "AlreadyExists",
      "type": "error"
    },
    {
      "inputs": [],
      "name": "AlreadySched",
      "type": "error"
    },
    {
      "inputs": [],
      "name": "ApproveFirst",
      "type": "error"
    },
    {
      "inputs": [],
      "name": "AssocFail",
      "type": "error"
    },
    {
      "inputs": [],
      "name": "GasLow",
      "type": "error"
    },
    {
      "inputs": [],
      "name": "Idx",
      "type": "error"
    },
    {
      "inputs": [],
      "name": "InsufBal",
      "type": "error"
    },
    {
      "inputs": [],
      "name": "InsufDeposit",
      "type": "error"
    },
    {
      "inputs": [],
      "name": "InternalOnly",
      "type": "error"
    },
    {
      "inputs": [],
      "name": "IntervalTooShort",
      "type": "error"
    },
    {
      "inputs": [],
      "name": "MaxReached",
      "type": "error"
    },
    {
      "inputs": [],
      "name": "NoPending",
      "type": "error"
    },
    {
      "inputs": [],
      "name": "NoRetry",
      "type": "error"
    },
    {
      "inputs": [],
      "name": "NoToken",
      "type": "error"
    },
    {
      "inputs": [],
      "name": "NotActive",
      "type": "error"
    },
    {
      "inputs": [],
      "name": "NotAuth",
      "type": "error"
    },
    {
      "inputs": [],
      "name": "NotHbar",
      "type": "error"
    },
    {
      "inputs": [
        {
          "internalType": "address",
          "name": "owner",
          "type": "address"
        }
      ],
      "name": "OwnableInvalidOwner",
      "type": "error"
    },
    {
      "inputs": [
        {
          "internalType": "address",
          "name": "account",
          "type": "address"
        }
      ],
      "name": "OwnableUnauthorizedAccount",
      "type": "error"
    },
    {
      "inputs": [],
      "name": "ReentrancyGuardReentrantCall",
      "type": "error"
    },
    {
      "inputs": [],
      "name": "UseHbar",
      "type": "error"
    },
    {
      "inputs": [],
      "name": "XferFail",
      "type": "error"
    },
    {
      "inputs": [],
      "name": "ZeroAddr",
      "type": "error"
    },
    {
      "inputs": [],
      "name": "ZeroAmount",
      "type": "error"
    },
    {
      "anonymous": false,
      "inputs": [
        {
          "indexed": true,
          "internalType": "uint256",
          "name": "agentIdx",
          "type": "uint256"
        },
        {
          "indexed": true,
          "internalType": "address",
          "name": "agent",
          "type": "address"
        },
        {
          "indexed": false,
          "internalType": "string",
          "name": "name",
          "type": "string"
        },
        {
          "indexed": false,
          "internalType": "uint256",
          "name": "amount",
          "type": "uint256"
        },
        {
          "indexed": false,
          "internalType": "uint256",
          "name": "interval",
          "type": "uint256"
        }
      ],
      "name": "AgentAdded",
      "type": "event"
    },
    {
      "anonymous": false,
      "inputs": [
        {
          "indexed": true,
          "internalType": "uint256",
          "name": "agentIdx",
          "type": "uint256"
        },
        {
          "indexed": true,
          "internalType": "address",
          "name": "agent",
          "type": "address"
        }
      ],
      "name": "AgentRemoved",
      "type": "event"
    },
    {
      "anonymous": false,
      "inputs": [
        {
          "indexed": true,
          "internalType": "uint256",
          "name": "agentIdx",
          "type": "uint256"
        },
        {
          "indexed": false,
          "internalType": "uint256",
          "name": "newAmount",
          "type": "uint256"
        },
        {
          "indexed": false,
          "internalType": "uint256",
          "name": "newInterval",
          "type": "uint256"
        }
      ],
      "name": "AgentUpdated",
      "type": "event"
    },
    {
      "anonymous": false,
      "inputs": [
        {
          "indexed": false,
          "internalType": "uint256",
          "name": "newAmount",
          "type": "uint256"
        },
        {
          "indexed": false,
          "internalType": "uint256",
          "name": "newInterval",
          "type": "uint256"
        }
      ],
      "name": "DefaultsUpdated",
      "type": "event"
    },
    {
      "anonymous": false,
      "inputs": [
        {
          "indexed": true,
          "internalType": "uint256",
          "name": "subIdx",
          "type": "uint256"
        },
        {
          "indexed": true,
          "internalType": "address",
          "name": "subscriber",
          "type": "address"
        },
        {
          "indexed": false,
          "internalType": "uint256",
          "name": "amount",
          "type": "uint256"
        },
        {
          "indexed": false,
          "internalType": "uint256",
          "name": "newBalance",
          "type": "uint256"
        }
      ],
      "name": "HbarDeposited",
      "type": "event"
    },
    {
      "anonymous": false,
      "inputs": [
        {
          "indexed": true,
          "internalType": "uint256",
          "name": "subIdx",
          "type": "uint256"
        },
        {
          "indexed": true,
          "internalType": "address",
          "name": "subscriber",
          "type": "address"
        },
        {
          "indexed": false,
          "internalType": "uint256",
          "name": "amount",
          "type": "uint256"
        }
      ],
      "name": "HbarRefunded",
      "type": "event"
    },
    {
      "anonymous": false,
      "inputs": [
        {
          "indexed": true,
          "internalType": "uint256",
          "name": "agentIdx",
          "type": "uint256"
        },
        {
          "indexed": false,
          "internalType": "uint256",
          "name": "required",
          "type": "uint256"
        },
        {
          "indexed": false,
          "internalType": "uint256",
          "name": "available",
          "type": "uint256"
        }
      ],
      "name": "InsufficientBalance",
      "type": "event"
    },
    {
      "anonymous": false,
      "inputs": [
        {
          "indexed": true,
          "internalType": "address",
          "name": "previousOwner",
          "type": "address"
        },
        {
          "indexed": true,
          "internalType": "address",
          "name": "newOwner",
          "type": "address"
        }
      ],
      "name": "OwnershipTransferred",
      "type": "event"
    },
    {
      "anonymous": false,
      "inputs": [
        {
          "indexed": true,
          "internalType": "address",
          "name": "token",
          "type": "address"
        }
      ],
      "name": "PaymentTokenSet",
      "type": "event"
    },
    {
      "anonymous": false,
      "inputs": [
        {
          "indexed": true,
          "internalType": "uint256",
          "name": "agentIdx",
          "type": "uint256"
        },
        {
          "indexed": true,
          "internalType": "address",
          "name": "agent",
          "type": "address"
        },
        {
          "indexed": false,
          "internalType": "uint256",
          "name": "amount",
          "type": "uint256"
        },
        {
          "indexed": false,
          "internalType": "uint256",
          "name": "paymentNumber",
          "type": "uint256"
        }
      ],
      "name": "PayrollExecuted",
      "type": "event"
    },
    {
      "anonymous": false,
      "inputs": [
        {
          "indexed": true,
          "internalType": "uint256",
          "name": "agentIdx",
          "type": "uint256"
        },
        {
          "indexed": false,
          "internalType": "string",
          "name": "reason",
          "type": "string"
        }
      ],
      "name": "PayrollFailed",
      "type": "event"
    },
    {
      "anonymous": false,
      "inputs": [
        {
          "indexed": true,
          "internalType": "address",
          "name": "to",
          "type": "address"
        },
        {
          "indexed": false,
          "internalType": "uint256",
          "name": "hbarAmount",
          "type": "uint256"
        },
        {
          "indexed": false,
          "internalType": "address",
          "name": "token",
          "type": "address"
        },
        {
          "indexed": false,
          "internalType": "uint256",
          "name": "tokenAmount",
          "type": "uint256"
        }
      ],
      "name": "RevenueWithdrawn",
      "type": "event"
    },
    {
      "anonymous": false,
      "inputs": [
        {
          "indexed": true,
          "internalType": "uint256",
          "name": "agentIdx",
          "type": "uint256"
        },
        {
          "indexed": true,
          "internalType": "address",
          "name": "scheduleAddress",
          "type": "address"
        }
      ],
      "name": "ScheduleCancelled",
      "type": "event"
    },
    {
      "anonymous": false,
      "inputs": [
        {
          "indexed": true,
          "internalType": "uint256",
          "name": "agentIdx",
          "type": "uint256"
        },
        {
          "indexed": false,
          "internalType": "uint256",
          "name": "requestedTime",
          "type": "uint256"
        }
      ],
      "name": "ScheduleCapacityUnavailable",
      "type": "event"
    },
    {
      "anonymous": false,
      "inputs": [
        {
          "indexed": true,
          "internalType": "uint256",
          "name": "agentIdx",
          "type": "uint256"
        },
        {
          "indexed": true,
          "internalType": "address",
          "name": "scheduleAddress",
          "type": "address"
        },
        {
          "indexed": false,
          "internalType": "uint256",
          "name": "scheduledTime",
          "type": "uint256"
        }
      ],
      "name": "ScheduleCreated",
      "type": "event"
    },
    {
      "anonymous": false,
      "inputs": [
        {
          "indexed": true,
          "internalType": "uint256",
          "name": "subIdx",
          "type": "uint256"
        },
        {
          "indexed": false,
          "internalType": "uint256",
          "name": "requestedTime",
          "type": "uint256"
        }
      ],
      "name": "SubCapacityUnavailable",
      "type": "event"
    },
    {
      "anonymous": false,
      "inputs": [
        {
          "indexed": true,
          "internalType": "uint256",
          "name": "subIdx",
          "type": "uint256"
        },
        {
          "indexed": false,
          "internalType": "uint256",
          "name": "required",
          "type": "uint256"
        },
        {
          "indexed": false,
          "internalType": "uint256",
          "name": "available",
          "type": "uint256"
        }
      ],
      "name": "SubInsufficientBalance",
      "type": "event"
    },
    {
      "anonymous": false,
      "inputs": [
        {
          "indexed": true,
          "internalType": "uint256",
          "name": "subIdx",
          "type": "uint256"
        },
        {
          "indexed": true,
          "internalType": "address",
          "name": "scheduleAddress",
          "type": "address"
        }
      ],
      "name": "SubScheduleCancelled",
      "type": "event"
    },
    {
      "anonymous": false,
      "inputs": [
        {
          "indexed": true,
          "internalType": "uint256",
          "name": "subIdx",
          "type": "uint256"
        },
        {
          "indexed": true,
          "internalType": "address",
          "name": "scheduleAddress",
          "type": "address"
        },
        {
          "indexed": false,
          "internalType": "uint256",
          "name": "scheduledTime",
          "type": "uint256"
        }
      ],
      "name": "SubScheduleCreated",
      "type": "event"
    },
    {
      "anonymous": false,
      "inputs": [
        {
          "indexed": true,
          "internalType": "uint256",
          "name": "subIdx",
          "type": "uint256"
        },
        {
          "indexed": true,
          "internalType": "address",
          "name": "subscriber",
          "type": "address"
        },
        {
          "indexed": false,
          "internalType": "uint256",
          "name": "refund",
          "type": "uint256"
        }
      ],
      "name": "SubscriptionCancelled",
      "type": "event"
    },
    {
      "anonymous": false,
      "inputs": [
        {
          "indexed": true,
          "internalType": "uint256",
          "name": "subIdx",
          "type": "uint256"
        },
        {
          "indexed": true,
          "internalType": "address",
          "name": "subscriber",
          "type": "address"
        },
        {
          "indexed": false,
          "internalType": "string",
          "name": "name",
          "type": "string"
        },
        {
          "indexed": false,
          "internalType": "uint256",
          "name": "amount",
          "type": "uint256"
        },
        {
          "indexed": false,
          "internalType": "uint256",
          "name": "interval",
          "type": "uint256"
        },
        {
          "indexed": false,
          "internalType": "enum SPARKPayrollVault.SubPaymentMode",
          "name": "mode",
          "type": "uint8"
        },
        {
          "indexed": false,
          "internalType": "address",
          "name": "token",
          "type": "address"
        }
      ],
      "name": "SubscriptionCreated",
      "type": "event"
    },
    {
      "anonymous": false,
      "inputs": [
        {
          "indexed": true,
          "internalType": "uint256",
          "name": "subIdx",
          "type": "uint256"
        },
        {
          "indexed": true,
          "internalType": "address",
          "name": "subscriber",
          "type": "address"
        },
        {
          "indexed": false,
          "internalType": "uint256",
          "name": "amount",
          "type": "uint256"
        },
        {
          "indexed": false,
          "internalType": "uint256",
          "name": "paymentNumber",
          "type": "uint256"
        }
      ],
      "name": "SubscriptionExecuted",
      "type": "event"
    },
    {
      "anonymous": false,
      "inputs": [
        {
          "indexed": true,
          "internalType": "uint256",
          "name": "subIdx",
          "type": "uint256"
        },
        {
          "indexed": false,
          "internalType": "string",
          "name": "reason",
          "type": "string"
        }
      ],
      "name": "SubscriptionFailed",
      "type": "event"
    },
    {
      "anonymous": false,
      "inputs": [
        {
          "indexed": true,
          "internalType": "uint256",
          "name": "subIdx",
          "type": "uint256"
        },
        {
          "indexed": false,
          "internalType": "uint256",
          "name": "newAmount",
          "type": "uint256"
        },
        {
          "indexed": false,
          "internalType": "uint256",
          "name": "newInterval",
          "type": "uint256"
        }
      ],
      "name": "SubscriptionUpdated",
      "type": "event"
    },
    {
      "anonymous": false,
      "inputs": [
        {
          "indexed": true,
          "internalType": "address",
          "name": "token",
          "type": "address"
        }
      ],
      "name": "TokenAssociated",
      "type": "event"
    },
    {
      "anonymous": false,
      "inputs": [
        {
          "indexed": true,
          "internalType": "address",
          "name": "funder",
          "type": "address"
        },
        {
          "indexed": false,
          "internalType": "uint256",
          "name": "amount",
          "type": "uint256"
        },
        {
          "indexed": false,
          "internalType": "uint256",
          "name": "newBalance",
          "type": "uint256"
        }
      ],
      "name": "VaultFunded",
      "type": "event"
    },
    {
      "anonymous": false,
      "inputs": [
        {
          "indexed": true,
          "internalType": "address",
          "name": "funder",
          "type": "address"
        },
        {
          "indexed": true,
          "internalType": "address",
          "name": "token",
          "type": "address"
        },
        {
          "indexed": false,
          "internalType": "uint256",
          "name": "amount",
          "type": "uint256"
        },
        {
          "indexed": false,
          "internalType": "uint256",
          "name": "newBalance",
          "type": "uint256"
        }
      ],
      "name": "VaultFundedToken",
      "type": "event"
    },
    {
      "anonymous": false,
      "inputs": [
        {
          "indexed": true,
          "internalType": "address",
          "name": "to",
          "type": "address"
        },
        {
          "indexed": false,
          "internalType": "uint256",
          "name": "amount",
          "type": "uint256"
        }
      ],
      "name": "VaultWithdrawn",
      "type": "event"
    },
    {
      "inputs": [],
      "name": "MAX_AGENTS",
      "outputs": [
        {
          "internalType": "uint256",
          "name": "",
          "type": "uint256"
        }
      ],
      "stateMutability": "view",
      "type": "function"
    },
    {
      "inputs": [],
      "name": "MAX_SUBSCRIPTIONS",
      "outputs": [
        {
          "internalType": "uint256",
          "name": "",
          "type": "uint256"
        }
      ],
      "stateMutability": "view",
      "type": "function"
    },
    {
      "inputs": [],
      "name": "MIN_INTERVAL",
      "outputs": [
        {
          "internalType": "uint256",
          "name": "",
          "type": "uint256"
        }
      ],
      "stateMutability": "view",
      "type": "function"
    },
    {
      "inputs": [
        {
          "internalType": "address",
          "name": "schedAddr",
          "type": "address"
        }
      ],
      "name": "_tryDeleteSchedule",
      "outputs": [],
      "stateMutability": "nonpayable",
      "type": "function"
    },
    {
      "inputs": [
        {
          "internalType": "address payable",
          "name": "agent",
          "type": "address"
        },
        {
          "internalType": "string",
          "name": "name",
          "type": "string"
        },
        {
          "internalType": "uint256",
          "name": "amountPerPeriod",
          "type": "uint256"
        },
        {
          "internalType": "uint256",
          "name": "intervalSeconds",
          "type": "uint256"
        }
      ],
      "name": "addAgent",
      "outputs": [
        {
          "internalType": "uint256",
          "name": "idx",
          "type": "uint256"
        }
      ],
      "stateMutability": "nonpayable",
      "type": "function"
    },
    {
      "inputs": [
        {
          "internalType": "address",
          "name": "",
          "type": "address"
        }
      ],
      "name": "agentIndex",
      "outputs": [
        {
          "internalType": "uint256",
          "name": "",
          "type": "uint256"
        }
      ],
      "stateMutability": "view",
      "type": "function"
    },
    {
      "inputs": [
        {
          "internalType": "uint256",
          "name": "",
          "type": "uint256"
        }
      ],
      "name": "agents",
      "outputs": [
        {
          "internalType": "address payable",
          "name": "agent",
          "type": "address"
        },
        {
          "internalType": "uint256",
          "name": "amountPerPeriod",
          "type": "uint256"
        },
        {
          "internalType": "uint256",
          "name": "intervalSeconds",
          "type": "uint256"
        },
        {
          "internalType": "uint256",
          "name": "nextPaymentTime",
          "type": "uint256"
        },
        {
          "internalType": "address",
          "name": "currentScheduleAddr",
          "type": "address"
        },
        {
          "internalType": "enum SPARKPayrollVault.ScheduleStatus",
          "name": "status",
          "type": "uint8"
        },
        {
          "internalType": "uint256",
          "name": "totalPaid",
          "type": "uint256"
        },
        {
          "internalType": "uint256",
          "name": "paymentCount",
          "type": "uint256"
        },
        {
          "internalType": "bool",
          "name": "active",
          "type": "bool"
        },
        {
          "internalType": "string",
          "name": "agentName",
          "type": "string"
        }
      ],
      "stateMutability": "view",
      "type": "function"
    },
    {
      "inputs": [
        {
          "internalType": "address",
          "name": "token",
          "type": "address"
        }
      ],
      "name": "associateToken",
      "outputs": [],
      "stateMutability": "nonpayable",
      "type": "function"
    },
    {
      "inputs": [
        {
          "internalType": "uint256",
          "name": "agentIdx",
          "type": "uint256"
        }
      ],
      "name": "cancelPayroll",
      "outputs": [],
      "stateMutability": "nonpayable",
      "type": "function"
    },
    {
      "inputs": [
        {
          "internalType": "uint256",
          "name": "subIdx",
          "type": "uint256"
        }
      ],
      "name": "cancelSubscription",
      "outputs": [],
      "stateMutability": "nonpayable",
      "type": "function"
    },
    {
      "inputs": [],
      "name": "collectedHbar",
      "outputs": [
        {
          "internalType": "uint256",
          "name": "",
          "type": "uint256"
        }
      ],
      "stateMutability": "view",
      "type": "function"
    },
    {
      "inputs": [
        {
          "internalType": "address",
          "name": "",
          "type": "address"
        }
      ],
      "name": "collectedTokens",
      "outputs": [
        {
          "internalType": "uint256",
          "name": "",
          "type": "uint256"
        }
      ],
      "stateMutability": "view",
      "type": "function"
    },
    {
      "inputs": [],
      "name": "defaultAmount",
      "outputs": [
        {
          "internalType": "uint256",
          "name": "",
          "type": "uint256"
        }
      ],
      "stateMutability": "view",
      "type": "function"
    },
    {
      "inputs": [],
      "name": "defaultInterval",
      "outputs": [
        {
          "internalType": "uint256",
          "name": "",
          "type": "uint256"
        }
      ],
      "stateMutability": "view",
      "type": "function"
    },
    {
      "inputs": [
        {
          "internalType": "uint256",
          "name": "agentIdx",
          "type": "uint256"
        }
      ],
      "name": "executePayroll",
      "outputs": [],
      "stateMutability": "nonpayable",
      "type": "function"
    },
    {
      "inputs": [
        {
          "internalType": "uint256",
          "name": "subIdx",
          "type": "uint256"
        }
      ],
      "name": "executeSubscription",
      "outputs": [],
      "stateMutability": "nonpayable",
      "type": "function"
    },
    {
      "inputs": [],
      "name": "fundVault",
      "outputs": [],
      "stateMutability": "payable",
      "type": "function"
    },
    {
      "inputs": [
        {
          "internalType": "uint256",
          "name": "amount",
          "type": "uint256"
        }
      ],
      "name": "fundVaultToken",
      "outputs": [],
      "stateMutability": "nonpayable",
      "type": "function"
    },
    {
      "inputs": [
        {
          "internalType": "uint256",
          "name": "idx",
          "type": "uint256"
        }
      ],
      "name": "getAgent",
      "outputs": [
        {
          "components": [
            {
              "internalType": "address payable",
              "name": "agent",
              "type": "address"
            },
            {
              "internalType": "uint256",
              "name": "amountPerPeriod",
              "type": "uint256"
            },
            {
              "internalType": "uint256",
              "name": "intervalSeconds",
              "type": "uint256"
            },
            {
              "internalType": "uint256",
              "name": "nextPaymentTime",
              "type": "uint256"
            },
            {
              "internalType": "address",
              "name": "currentScheduleAddr",
              "type": "address"
            },
            {
              "internalType": "enum SPARKPayrollVault.ScheduleStatus",
              "name": "status",
              "type": "uint8"
            },
            {
              "internalType": "uint256",
              "name": "totalPaid",
              "type": "uint256"
            },
            {
              "internalType": "uint256",
              "name": "paymentCount",
              "type": "uint256"
            },
            {
              "internalType": "bool",
              "name": "active",
              "type": "bool"
            },
            {
              "internalType": "string",
              "name": "agentName",
              "type": "string"
            }
          ],
          "internalType": "struct SPARKPayrollVault.AgentPayroll",
          "name": "",
          "type": "tuple"
        }
      ],
      "stateMutability": "view",
      "type": "function"
    },
    {
      "inputs": [],
      "name": "getAgentCount",
      "outputs": [
        {
          "internalType": "uint256",
          "name": "",
          "type": "uint256"
        }
      ],
      "stateMutability": "view",
      "type": "function"
    },
    {
      "inputs": [],
      "name": "getAllAgents",
      "outputs": [
        {
          "components": [
            {
              "internalType": "address payable",
              "name": "agent",
              "type": "address"
            },
            {
              "internalType": "uint256",
              "name": "amountPerPeriod",
              "type": "uint256"
            },
            {
              "internalType": "uint256",
              "name": "intervalSeconds",
              "type": "uint256"
            },
            {
              "internalType": "uint256",
              "name": "nextPaymentTime",
              "type": "uint256"
            },
            {
              "internalType": "address",
              "name": "currentScheduleAddr",
              "type": "address"
            },
            {
              "internalType": "enum SPARKPayrollVault.ScheduleStatus",
              "name": "status",
              "type": "uint8"
            },
            {
              "internalType": "uint256",
              "name": "totalPaid",
              "type": "uint256"
            },
            {
              "internalType": "uint256",
              "name": "paymentCount",
              "type": "uint256"
            },
            {
              "internalType": "bool",
              "name": "active",
              "type": "bool"
            },
            {
              "internalType": "string",
              "name": "agentName",
              "type": "string"
            }
          ],
          "internalType": "struct SPARKPayrollVault.AgentPayroll[]",
          "name": "",
          "type": "tuple[]"
        }
      ],
      "stateMutability": "view",
      "type": "function"
    },
    {
      "inputs": [],
      "name": "getAllSubscriptions",
      "outputs": [
        {
          "components": [
            {
              "internalType": "address",
              "name": "subscriber",
              "type": "address"
            },
            {
              "internalType": "uint256",
              "name": "amountPerPeriod",
              "type": "uint256"
            },
            {
              "internalType": "uint256",
              "name": "intervalSeconds",
              "type": "uint256"
            },
            {
              "internalType": "uint256",
              "name": "nextPaymentTime",
              "type": "uint256"
            },
            {
              "internalType": "address",
              "name": "currentScheduleAddr",
              "type": "address"
            },
            {
              "internalType": "enum SPARKPayrollVault.ScheduleStatus",
              "name": "status",
              "type": "uint8"
            },
            {
              "internalType": "uint256",
              "name": "totalPaid",
              "type": "uint256"
            },
            {
              "internalType": "uint256",
              "name": "paymentCount",
              "type": "uint256"
            },
            {
              "internalType": "bool",
              "name": "active",
              "type": "bool"
            },
            {
              "internalType": "string",
              "name": "name",
              "type": "string"
            },
            {
              "internalType": "enum SPARKPayrollVault.SubPaymentMode",
              "name": "mode",
              "type": "uint8"
            },
            {
              "internalType": "address",
              "name": "token",
              "type": "address"
            }
          ],
          "internalType": "struct SPARKPayrollVault.Subscription[]",
          "name": "",
          "type": "tuple[]"
        }
      ],
      "stateMutability": "view",
      "type": "function"
    },
    {
      "inputs": [],
      "name": "getCollectedHbar",
      "outputs": [
        {
          "internalType": "uint256",
          "name": "",
          "type": "uint256"
        }
      ],
      "stateMutability": "view",
      "type": "function"
    },
    {
      "inputs": [
        {
          "internalType": "uint256",
          "name": "count",
          "type": "uint256"
        }
      ],
      "name": "getRecentHistory",
      "outputs": [
        {
          "components": [
            {
              "internalType": "uint256",
              "name": "agentIdx",
              "type": "uint256"
            },
            {
              "internalType": "address",
              "name": "scheduleAddress",
              "type": "address"
            },
            {
              "internalType": "uint256",
              "name": "scheduledTime",
              "type": "uint256"
            },
            {
              "internalType": "uint256",
              "name": "createdAt",
              "type": "uint256"
            },
            {
              "internalType": "uint256",
              "name": "executedAt",
              "type": "uint256"
            },
            {
              "internalType": "enum SPARKPayrollVault.ScheduleStatus",
              "name": "status",
              "type": "uint8"
            }
          ],
          "internalType": "struct SPARKPayrollVault.ScheduleRecord[]",
          "name": "",
          "type": "tuple[]"
        }
      ],
      "stateMutability": "view",
      "type": "function"
    },
    {
      "inputs": [],
      "name": "getScheduleHistoryCount",
      "outputs": [
        {
          "internalType": "uint256",
          "name": "",
          "type": "uint256"
        }
      ],
      "stateMutability": "view",
      "type": "function"
    },
    {
      "inputs": [
        {
          "internalType": "uint256",
          "name": "idx",
          "type": "uint256"
        }
      ],
      "name": "getScheduleRecord",
      "outputs": [
        {
          "components": [
            {
              "internalType": "uint256",
              "name": "agentIdx",
              "type": "uint256"
            },
            {
              "internalType": "address",
              "name": "scheduleAddress",
              "type": "address"
            },
            {
              "internalType": "uint256",
              "name": "scheduledTime",
              "type": "uint256"
            },
            {
              "internalType": "uint256",
              "name": "createdAt",
              "type": "uint256"
            },
            {
              "internalType": "uint256",
              "name": "executedAt",
              "type": "uint256"
            },
            {
              "internalType": "enum SPARKPayrollVault.ScheduleStatus",
              "name": "status",
              "type": "uint8"
            }
          ],
          "internalType": "struct SPARKPayrollVault.ScheduleRecord",
          "name": "",
          "type": "tuple"
        }
      ],
      "stateMutability": "view",
      "type": "function"
    },
    {
      "inputs": [
        {
          "internalType": "uint256",
          "name": "subIdx",
          "type": "uint256"
        }
      ],
      "name": "getSubHbarBalance",
      "outputs": [
        {
          "internalType": "uint256",
          "name": "",
          "type": "uint256"
        }
      ],
      "stateMutability": "view",
      "type": "function"
    },
    {
      "inputs": [
        {
          "internalType": "uint256",
          "name": "count",
          "type": "uint256"
        }
      ],
      "name": "getSubRecentHistory",
      "outputs": [
        {
          "components": [
            {
              "internalType": "uint256",
              "name": "subIdx",
              "type": "uint256"
            },
            {
              "internalType": "address",
              "name": "scheduleAddress",
              "type": "address"
            },
            {
              "internalType": "uint256",
              "name": "scheduledTime",
              "type": "uint256"
            },
            {
              "internalType": "uint256",
              "name": "createdAt",
              "type": "uint256"
            },
            {
              "internalType": "uint256",
              "name": "executedAt",
              "type": "uint256"
            },
            {
              "internalType": "enum SPARKPayrollVault.ScheduleStatus",
              "name": "status",
              "type": "uint8"
            }
          ],
          "internalType": "struct SPARKPayrollVault.SubScheduleRecord[]",
          "name": "",
          "type": "tuple[]"
        }
      ],
      "stateMutability": "view",
      "type": "function"
    },
    {
      "inputs": [],
      "name": "getSubScheduleHistoryCount",
      "outputs": [
        {
          "internalType": "uint256",
          "name": "",
          "type": "uint256"
        }
      ],
      "stateMutability": "view",
      "type": "function"
    },
    {
      "inputs": [
        {
          "internalType": "uint256",
          "name": "idx",
          "type": "uint256"
        }
      ],
      "name": "getSubScheduleRecord",
      "outputs": [
        {
          "components": [
            {
              "internalType": "uint256",
              "name": "subIdx",
              "type": "uint256"
            },
            {
              "internalType": "address",
              "name": "scheduleAddress",
              "type": "address"
            },
            {
              "internalType": "uint256",
              "name": "scheduledTime",
              "type": "uint256"
            },
            {
              "internalType": "uint256",
              "name": "createdAt",
              "type": "uint256"
            },
            {
              "internalType": "uint256",
              "name": "executedAt",
              "type": "uint256"
            },
            {
              "internalType": "enum SPARKPayrollVault.ScheduleStatus",
              "name": "status",
              "type": "uint8"
            }
          ],
          "internalType": "struct SPARKPayrollVault.SubScheduleRecord",
          "name": "",
          "type": "tuple"
        }
      ],
      "stateMutability": "view",
      "type": "function"
    },
    {
      "inputs": [
        {
          "internalType": "address",
          "name": "token",
          "type": "address"
        }
      ],
      "name": "getSubTokenBalance",
      "outputs": [
        {
          "internalType": "uint256",
          "name": "",
          "type": "uint256"
        }
      ],
      "stateMutability": "view",
      "type": "function"
    },
    {
      "inputs": [
        {
          "internalType": "address",
          "name": "subscriber",
          "type": "address"
        }
      ],
      "name": "getSubscriberSubs",
      "outputs": [
        {
          "internalType": "uint256[]",
          "name": "",
          "type": "uint256[]"
        }
      ],
      "stateMutability": "view",
      "type": "function"
    },
    {
      "inputs": [
        {
          "internalType": "uint256",
          "name": "idx",
          "type": "uint256"
        }
      ],
      "name": "getSubscription",
      "outputs": [
        {
          "components": [
            {
              "internalType": "address",
              "name": "subscriber",
              "type": "address"
            },
            {
              "internalType": "uint256",
              "name": "amountPerPeriod",
              "type": "uint256"
            },
            {
              "internalType": "uint256",
              "name": "intervalSeconds",
              "type": "uint256"
            },
            {
              "internalType": "uint256",
              "name": "nextPaymentTime",
              "type": "uint256"
            },
            {
              "internalType": "address",
              "name": "currentScheduleAddr",
              "type": "address"
            },
            {
              "internalType": "enum SPARKPayrollVault.ScheduleStatus",
              "name": "status",
              "type": "uint8"
            },
            {
              "internalType": "uint256",
              "name": "totalPaid",
              "type": "uint256"
            },
            {
              "internalType": "uint256",
              "name": "paymentCount",
              "type": "uint256"
            },
            {
              "internalType": "bool",
              "name": "active",
              "type": "bool"
            },
            {
              "internalType": "string",
              "name": "name",
              "type": "string"
            },
            {
              "internalType": "enum SPARKPayrollVault.SubPaymentMode",
              "name": "mode",
              "type": "uint8"
            },
            {
              "internalType": "address",
              "name": "token",
              "type": "address"
            }
          ],
          "internalType": "struct SPARKPayrollVault.Subscription",
          "name": "",
          "type": "tuple"
        }
      ],
      "stateMutability": "view",
      "type": "function"
    },
    {
      "inputs": [],
      "name": "getSubscriptionCount",
      "outputs": [
        {
          "internalType": "uint256",
          "name": "",
          "type": "uint256"
        }
      ],
      "stateMutability": "view",
      "type": "function"
    },
    {
      "inputs": [],
      "name": "getTokenBalance",
      "outputs": [
        {
          "internalType": "uint256",
          "name": "",
          "type": "uint256"
        }
      ],
      "stateMutability": "view",
      "type": "function"
    },
    {
      "inputs": [],
      "name": "getVaultBalance",
      "outputs": [
        {
          "internalType": "uint256",
          "name": "",
          "type": "uint256"
        }
      ],
      "stateMutability": "view",
      "type": "function"
    },
    {
      "inputs": [
        {
          "internalType": "address",
          "name": "",
          "type": "address"
        }
      ],
      "name": "isAgent",
      "outputs": [
        {
          "internalType": "bool",
          "name": "",
          "type": "bool"
        }
      ],
      "stateMutability": "view",
      "type": "function"
    },
    {
      "inputs": [],
      "name": "owner",
      "outputs": [
        {
          "internalType": "address",
          "name": "",
          "type": "address"
        }
      ],
      "stateMutability": "view",
      "type": "function"
    },
    {
      "inputs": [],
      "name": "paymentToken",
      "outputs": [
        {
          "internalType": "address",
          "name": "",
          "type": "address"
        }
      ],
      "stateMutability": "view",
      "type": "function"
    },
    {
      "inputs": [
        {
          "internalType": "uint256",
          "name": "idx",
          "type": "uint256"
        }
      ],
      "name": "removeAgent",
      "outputs": [],
      "stateMutability": "nonpayable",
      "type": "function"
    },
    {
      "inputs": [],
      "name": "renounceOwnership",
      "outputs": [],
      "stateMutability": "nonpayable",
      "type": "function"
    },
    {
      "inputs": [
        {
          "internalType": "uint256",
          "name": "agentIdx",
          "type": "uint256"
        }
      ],
      "name": "retryPayroll",
      "outputs": [],
      "stateMutability": "nonpayable",
      "type": "function"
    },
    {
      "inputs": [
        {
          "internalType": "uint256",
          "name": "subIdx",
          "type": "uint256"
        }
      ],
      "name": "retrySubscription",
      "outputs": [],
      "stateMutability": "nonpayable",
      "type": "function"
    },
    {
      "inputs": [
        {
          "internalType": "uint256",
          "name": "",
          "type": "uint256"
        }
      ],
      "name": "scheduleHistory",
      "outputs": [
        {
          "internalType": "uint256",
          "name": "agentIdx",
          "type": "uint256"
        },
        {
          "internalType": "address",
          "name": "scheduleAddress",
          "type": "address"
        },
        {
          "internalType": "uint256",
          "name": "scheduledTime",
          "type": "uint256"
        },
        {
          "internalType": "uint256",
          "name": "createdAt",
          "type": "uint256"
        },
        {
          "internalType": "uint256",
          "name": "executedAt",
          "type": "uint256"
        },
        {
          "internalType": "enum SPARKPayrollVault.ScheduleStatus",
          "name": "status",
          "type": "uint8"
        }
      ],
      "stateMutability": "view",
      "type": "function"
    },
    {
      "inputs": [
        {
          "internalType": "address",
          "name": "",
          "type": "address"
        }
      ],
      "name": "scheduleToHistoryIndex",
      "outputs": [
        {
          "internalType": "uint256",
          "name": "",
          "type": "uint256"
        }
      ],
      "stateMutability": "view",
      "type": "function"
    },
    {
      "inputs": [],
      "name": "scheduledCallGasLimit",
      "outputs": [
        {
          "internalType": "uint256",
          "name": "",
          "type": "uint256"
        }
      ],
      "stateMutability": "view",
      "type": "function"
    },
    {
      "inputs": [
        {
          "internalType": "uint256",
          "name": "_amount",
          "type": "uint256"
        }
      ],
      "name": "setDefaultAmount",
      "outputs": [],
      "stateMutability": "nonpayable",
      "type": "function"
    },
    {
      "inputs": [
        {
          "internalType": "uint256",
          "name": "_interval",
          "type": "uint256"
        }
      ],
      "name": "setDefaultInterval",
      "outputs": [],
      "stateMutability": "nonpayable",
      "type": "function"
    },
    {
      "inputs": [
        {
          "internalType": "uint256",
          "name": "_gasLimit",
          "type": "uint256"
        }
      ],
      "name": "setGasLimit",
      "outputs": [],
      "stateMutability": "nonpayable",
      "type": "function"
    },
    {
      "inputs": [
        {
          "internalType": "address",
          "name": "token",
          "type": "address"
        }
      ],
      "name": "setPaymentToken",
      "outputs": [],
      "stateMutability": "nonpayable",
      "type": "function"
    },
    {
      "inputs": [
        {
          "internalType": "uint256",
          "name": "agentIdx",
          "type": "uint256"
        }
      ],
      "name": "startPayroll",
      "outputs": [],
      "stateMutability": "nonpayable",
      "type": "function"
    },
    {
      "inputs": [
        {
          "internalType": "uint256",
          "name": "subIdx",
          "type": "uint256"
        }
      ],
      "name": "startSubscription",
      "outputs": [],
      "stateMutability": "nonpayable",
      "type": "function"
    },
    {
      "inputs": [
        {
          "internalType": "uint256",
          "name": "",
          "type": "uint256"
        }
      ],
      "name": "subHbarBalance",
      "outputs": [
        {
          "internalType": "uint256",
          "name": "",
          "type": "uint256"
        }
      ],
      "stateMutability": "view",
      "type": "function"
    },
    {
      "inputs": [
        {
          "internalType": "uint256",
          "name": "",
          "type": "uint256"
        }
      ],
      "name": "subScheduleHistory",
      "outputs": [
        {
          "internalType": "uint256",
          "name": "subIdx",
          "type": "uint256"
        },
        {
          "internalType": "address",
          "name": "scheduleAddress",
          "type": "address"
        },
        {
          "internalType": "uint256",
          "name": "scheduledTime",
          "type": "uint256"
        },
        {
          "internalType": "uint256",
          "name": "createdAt",
          "type": "uint256"
        },
        {
          "internalType": "uint256",
          "name": "executedAt",
          "type": "uint256"
        },
        {
          "internalType": "enum SPARKPayrollVault.ScheduleStatus",
          "name": "status",
          "type": "uint8"
        }
      ],
      "stateMutability": "view",
      "type": "function"
    },
    {
      "inputs": [
        {
          "internalType": "address",
          "name": "",
          "type": "address"
        }
      ],
      "name": "subScheduleToHistoryIndex",
      "outputs": [
        {
          "internalType": "uint256",
          "name": "",
          "type": "uint256"
        }
      ],
      "stateMutability": "view",
      "type": "function"
    },
    {
      "inputs": [
        {
          "internalType": "string",
          "name": "name",
          "type": "string"
        },
        {
          "internalType": "uint256",
          "name": "amountPerPeriod",
          "type": "uint256"
        },
        {
          "internalType": "uint256",
          "name": "intervalSeconds",
          "type": "uint256"
        }
      ],
      "name": "subscribeHbar",
      "outputs": [
        {
          "internalType": "uint256",
          "name": "idx",
          "type": "uint256"
        }
      ],
      "stateMutability": "payable",
      "type": "function"
    },
    {
      "inputs": [
        {
          "internalType": "address",
          "name": "token",
          "type": "address"
        },
        {
          "internalType": "string",
          "name": "name",
          "type": "string"
        },
        {
          "internalType": "uint256",
          "name": "amountPerPeriod",
          "type": "uint256"
        },
        {
          "internalType": "uint256",
          "name": "intervalSeconds",
          "type": "uint256"
        }
      ],
      "name": "subscribeToken",
      "outputs": [
        {
          "internalType": "uint256",
          "name": "idx",
          "type": "uint256"
        }
      ],
      "stateMutability": "nonpayable",
      "type": "function"
    },
    {
      "inputs": [
        {
          "internalType": "address",
          "name": "",
          "type": "address"
        },
        {
          "internalType": "uint256",
          "name": "",
          "type": "uint256"
        }
      ],
      "name": "subscriberSubs",
      "outputs": [
        {
          "internalType": "uint256",
          "name": "",
          "type": "uint256"
        }
      ],
      "stateMutability": "view",
      "type": "function"
    },
    {
      "inputs": [
        {
          "internalType": "uint256",
          "name": "",
          "type": "uint256"
        }
      ],
      "name": "subscriptions",
      "outputs": [
        {
          "internalType": "address",
          "name": "subscriber",
          "type": "address"
        },
        {
          "internalType": "uint256",
          "name": "amountPerPeriod",
          "type": "uint256"
        },
        {
          "internalType": "uint256",
          "name": "intervalSeconds",
          "type": "uint256"
        },
        {
          "internalType": "uint256",
          "name": "nextPaymentTime",
          "type": "uint256"
        },
        {
          "internalType": "address",
          "name": "currentScheduleAddr",
          "type": "address"
        },
        {
          "internalType": "enum SPARKPayrollVault.ScheduleStatus",
          "name": "status",
          "type": "uint8"
        },
        {
          "internalType": "uint256",
          "name": "totalPaid",
          "type": "uint256"
        },
        {
          "internalType": "uint256",
          "name": "paymentCount",
          "type": "uint256"
        },
        {
          "internalType": "bool",
          "name": "active",
          "type": "bool"
        },
        {
          "internalType": "string",
          "name": "name",
          "type": "string"
        },
        {
          "internalType": "enum SPARKPayrollVault.SubPaymentMode",
          "name": "mode",
          "type": "uint8"
        },
        {
          "internalType": "address",
          "name": "token",
          "type": "address"
        }
      ],
      "stateMutability": "view",
      "type": "function"
    },
    {
      "inputs": [
        {
          "internalType": "uint256",
          "name": "subIdx",
          "type": "uint256"
        }
      ],
      "name": "topUpSubscription",
      "outputs": [],
      "stateMutability": "payable",
      "type": "function"
    },
    {
      "inputs": [
        {
          "internalType": "address",
          "name": "newOwner",
          "type": "address"
        }
      ],
      "name": "transferOwnership",
      "outputs": [],
      "stateMutability": "nonpayable",
      "type": "function"
    },
    {
      "inputs": [
        {
          "internalType": "uint256",
          "name": "idx",
          "type": "uint256"
        },
        {
          "internalType": "uint256",
          "name": "newAmount",
          "type": "uint256"
        },
        {
          "internalType": "uint256",
          "name": "newInterval",
          "type": "uint256"
        }
      ],
      "name": "updateAgent",
      "outputs": [],
      "stateMutability": "nonpayable",
      "type": "function"
    },
    {
      "inputs": [
        {
          "internalType": "uint256",
          "name": "subIdx",
          "type": "uint256"
        },
        {
          "internalType": "uint256",
          "name": "newAmount",
          "type": "uint256"
        },
        {
          "internalType": "uint256",
          "name": "newInterval",
          "type": "uint256"
        }
      ],
      "name": "updateSubscription",
      "outputs": [],
      "stateMutability": "nonpayable",
      "type": "function"
    },
    {
      "inputs": [
        {
          "internalType": "uint256",
          "name": "amount",
          "type": "uint256"
        }
      ],
      "name": "withdrawExcess",
      "outputs": [],
      "stateMutability": "nonpayable",
      "type": "function"
    },
    {
      "inputs": [
        {
          "internalType": "uint256",
          "name": "amount",
          "type": "uint256"
        }
      ],
      "name": "withdrawSubHbar",
      "outputs": [],
      "stateMutability": "nonpayable",
      "type": "function"
    },
    {
      "inputs": [
        {
          "internalType": "address",
          "name": "token",
          "type": "address"
        },
        {
          "internalType": "uint256",
          "name": "amount",
          "type": "uint256"
        }
      ],
      "name": "withdrawSubTokens",
      "outputs": [],
      "stateMutability": "nonpayable",
      "type": "function"
    },
    {
      "stateMutability": "payable",
      "type": "receive"
    }
  ],
  "bytecode": "0x6080604052620c350060025534801562000017575f80fd5b5060405162005e1d38038062005e1d8339810160408190526200003a9162000113565b33806200006057604051631e4fbdf760e01b81525f600482015260240160405180910390fd5b6200006b81620000c4565b50600180555f8290036200009257604051631f2a200560e01b815260040160405180910390fd5b600a811015620000b55760405163252847a560e11b815260040160405180910390fd5b60039190915560045562000136565b5f80546001600160a01b038381166001600160a01b0319831681178455604051919092169283917f8be0079c531659141344cd1fd0a4f28419497f9722a3daafe3b4186f6b6457e09190a35050565b5f806040838503121562000125575f80fd5b505080516020909101519092909150565b615cd980620001445f395ff3fe6080604052600436106103cc575f3560e01c806382b2e257116101f4578063c036874011610113578063ed12e8ef116100a8578063f6ce1a8611610078578063f6ce1a8614610bfc578063f7800e6914610c10578063fc27ea8314610c18578063fe71260714610c2d578063fefe172a14610c41575f80fd5b8063ed12e8ef14610b80578063ee7d72b414610b92578063f2fde38b14610bb1578063f65f6f0814610bd0575f80fd5b8063d822f421116100e3578063d822f42114610af7578063dc311dd314610b16578063e755ddd714610b42578063e890365614610b61575f80fd5b8063c036874014610a90578063c358b3b014610aa4578063cd7fada514610ac3578063d1ac71fb14610ae2575f80fd5b80638f57b77811610189578063aa0bf65b11610159578063aa0bf65b14610a27578063ab30be8714610a53578063b6e21fed14610a67578063b8b609f614610a7b575f80fd5b80638f57b778146109b657806391cab63e146109c9578063a74d344e146109dd578063a7efe34814610a08575f80fd5b80638a0cb1cc116101c45780638a0cb1cc146109475780638a17221d146109665780638da5cb5b1461097b5780638e2db27d14610997575f80fd5b806382b2e257146108ce57806383ee2185146108e2578063860e4ac61461091357806386850e9314610934575f80fd5b80634780c105116102eb5780636641997011610280578063715018a611610250578063715018a61461082557806378734a31146108395780637a016272146108585780637a4102b8146108845780637eedcbc3146108a3575f80fd5b8063664199701461079c5780636a326ab1146107b05780636b933403146107cf5780636fc604b8146107fa575f80fd5b80635c3ac0ba116102bb5780635c3ac0ba146107205780635cf504e11461073f5780635fbf253e1461075e57806362a5b5ea1461077d575f80fd5b80634780c105146106975780634e2e15dc146106ab578063513856c8146106ca57806356eb00a1146106ff575f80fd5b806328b8d1ee116103615780633013ce29116103315780633013ce291461060357806336e4463f1461063a57806338ce4fd8146106595780633abdb63d14610678575f80fd5b806328b8d1ee146105555780632d5bbf60146105745780632de5aaf7146105ab5780632ec9c7ae146105d7575f80fd5b8063212350831161039c57806321235083146104c157806322151374146104e0578063243abbc51461050b578063284db24c1461052a575f80fd5b8063097603e21461041157806313230fb2146104325780631c407311146104515780631ffbb06414610483575f80fd5b3661040d576040805134815247602082015233917f3dcb1a97c343d0c00e1809c139e8b8348116c0c82c850e0c82d54e91fb36e8b8910160405180910390a2005b5f80fd5b34801561041c575f80fd5b5061043061042b366004615237565b610c60565b005b34801561043d575f80fd5b5061043061044c366004615261565b610e1f565b34801561045c575f80fd5b5061047061046b366004615278565b610e8e565b6040519081526020015b60405180910390f35b34801561048e575f80fd5b506104b161049d366004615278565b60086020525f908152604090205460ff1681565b604051901515815260200161047a565b3480156104cc575f80fd5b506104306104db366004615261565b610f10565b3480156104eb575f80fd5b506104706104fa366004615278565b60116020525f908152604090205481565b348015610516575f80fd5b50610430610525366004615261565b611261565b348015610535575f80fd5b50610470610544366004615261565b600d6020525f908152604090205481565b348015610560575f80fd5b5061043061056f366004615261565b61136b565b34801561057f575f80fd5b5061059361058e366004615261565b611471565b60405161047a9c9b9a9998979695949392919061531f565b3480156105b6575f80fd5b506105ca6105c5366004615261565b61158b565b60405161047a9190615453565b3480156105e2575f80fd5b506105f66105f1366004615261565b611766565b60405161047a91906154ab565b34801561060e575f80fd5b50600554610622906001600160a01b031681565b6040516001600160a01b03909116815260200161047a565b348015610645575f80fd5b50610430610654366004615261565b6118d3565b348015610664575f80fd5b50610430610673366004615261565b6119d8565b348015610683575f80fd5b50610430610692366004615261565b611b7b565b3480156106a2575f80fd5b50610470606481565b3480156106b6575f80fd5b506104306106c53660046154f8565b611c54565b3480156106d5575f80fd5b506106e96106e4366004615261565b611d4a565b60405161047a9a99989796959493929190615521565b34801561070a575f80fd5b50610713611e4a565b60405161047a9190615669565b34801561072b575f80fd5b5061043061073a366004615261565b612023565b34801561074a575f80fd5b50610430610759366004615261565b6120d7565b348015610769575f80fd5b50610430610778366004615261565b61218b565b348015610788575f80fd5b50610430610797366004615261565b612671565b3480156107a7575f80fd5b50600b54610470565b3480156107bb575f80fd5b506104306107ca366004615278565b612806565b3480156107da575f80fd5b506104706107e9366004615261565b5f908152600d602052604090205490565b348015610805575f80fd5b50610470610814366004615278565b600f6020525f908152604090205481565b348015610830575f80fd5b50610430612857565b348015610844575f80fd5b5061047061085336600461570e565b61286a565b348015610863575f80fd5b50610877610872366004615261565b612b31565b60405161047a9190615770565b34801561088f575f80fd5b5061043061089e366004615261565b612bfd565b3480156108ae575f80fd5b506104706108bd366004615278565b600a6020525f908152604090205481565b3480156108d9575f80fd5b50610470612c64565b3480156108ed575f80fd5b506109016108fc366004615261565b612cea565b60405161047a9695949392919061577e565b34801561091e575f80fd5b50610927612d3b565b60405161047a91906157c1565b610430610942366004615261565b612ebe565b348015610952575f80fd5b5061047061096136600461570e565b612ff3565b348015610971575f80fd5b5061047060025481565b348015610986575f80fd5b505f546001600160a01b0316610622565b3480156109a2575f80fd5b506109016109b1366004615261565b613354565b6104706109c4366004615814565b613363565b3480156109d4575f80fd5b50600654610470565b3480156109e8575f80fd5b506104706109f7366004615278565b60076020525f908152604090205481565b348015610a13575f80fd5b50610430610a22366004615278565b613673565b348015610a32575f80fd5b50610a46610a41366004615261565b6137bd565b60405161047a9190615861565b348015610a5e575f80fd5b50610470603281565b348015610a72575f80fd5b50601054610470565b348015610a86575f80fd5b5061047060105481565b348015610a9b575f80fd5b50610470600a81565b348015610aaf575f80fd5b50610470610abe366004615237565b613920565b348015610ace575f80fd5b50610430610add366004615278565b61394b565b348015610aed575f80fd5b5061047060045481565b348015610b02575f80fd5b50610877610b11366004615261565b613978565b348015610b21575f80fd5b50610b35610b30366004615261565b6139b5565b60405161047a91906158a2565b348015610b4d575f80fd5b50610430610b5c366004615261565b613be6565b348015610b6c575f80fd5b50610430610b7b366004615261565b613e28565b348015610b8b575f80fd5b5047610470565b348015610b9d575f80fd5b50610430610bac366004615261565b614487565b348015610bbc575f80fd5b50610430610bcb366004615278565b6144b8565b348015610bdb575f80fd5b50610bef610bea366004615278565b6144f7565b60405161047a91906158b4565b348015610c07575f80fd5b50600e54610470565b610430614560565b348015610c23575f80fd5b5061047060035481565b348015610c38575f80fd5b50600954610470565b348015610c4c575f80fd5b50610430610c5b3660046154f8565b6145bc565b610c686146ec565b6001600160a01b038216610c8f5760405163f258f18560e01b815260040160405180910390fd5b6040516370a0823160e01b81523060048201525f906001600160a01b038416906370a0823190602401602060405180830381865afa158015610cd3573d5f803e3d5ffd5b505050506040513d601f19601f82011682018060405250810190610cf791906158eb565b905080821115610d1a576040516316d1272960e21b815260040160405180910390fd5b5f836001600160a01b031663a9059cbb610d3b5f546001600160a01b031690565b6040516001600160e01b031960e084901b1681526001600160a01b039091166004820152602481018690526044016020604051808303815f875af1158015610d85573d5f803e3d5ffd5b505050506040513d601f19601f82011682018060405250810190610da99190615902565b905080610dc9576040516302c65f0760e01b815260040160405180910390fd5b5f8054604080519283526001600160a01b03878116602085015290830186905216907f99c04ba2fa3d3d44b7612d9e42929881bdeb0572c12385f460c5c90b7c2f04ac906060015b60405180910390a250505050565b610e276146ec565b600a811015610e495760405163252847a560e11b815260040160405180910390fd5b600481905560035460408051918252602082018390527fc7f44c66d5272c4c427a79b701e44cf050932760038bf62e811ef6c2dcb739dc91015b60405180910390a150565b5f6001600160a01b038216610ea457505f919050565b6040516370a0823160e01b81523060048201526001600160a01b038316906370a0823190602401602060405180830381865afa158015610ee6573d5f803e3d5ffd5b505050506040513d601f19601f82011682018060405250810190610f0a91906158eb565b92915050565b600b548110610f3257604051634904786360e01b815260040160405180910390fd5b5f600b8281548110610f4657610f46615921565b5f9182526020909120600a90910201600781015490915060ff16610f7d576040516354e3762560e01b815260040160405180910390fd5b80546001600160a01b03163314801590610fa157505f546001600160a01b03163314155b15610fbf5760405163060a6aeb60e51b815260040160405180910390fd5b60078101805460ff191690556001600482810154600160a01b900460ff1690811115610fed57610fed61529a565b148015611006575060048101546001600160a01b031615155b156111045760048181015460405163cd7fada560e01b81526001600160a01b03909116918101829052309063cd7fada5906024015f604051808303815f87803b158015611051575f80fd5b505af1925050508015611062575060015b506001600160a01b0381165f908152600f6020526040902054600e548110156110cc576004600e828154811061109a5761109a615921565b5f9182526020909120600560069092020101805460ff191660018360048111156110c6576110c661529a565b02179055505b6040516001600160a01b0383169085907fd2ee38267c8197c8863fb2640d8ecd2c286f15d278e44a8f48dc98a99a5ab0c0905f90a350505b6004810180546001600160a81b031916600160a21b17905560098101545f90819060ff1660018111156111395761113961529a565b0361121857505f828152600d60205260409020548015611218575f838152600d6020526040808220829055835490516001600160a01b039091169083908381818185875af1925050503d805f81146111ac576040519150601f19603f3d011682016040523d82523d5f602084013e6111b1565b606091505b50509050806111d3576040516302c65f0760e01b815260040160405180910390fd5b82546040518381526001600160a01b039091169085907fd43e740f849d653241696008389b05593788924e22a87920bae2915e0e56fb609060200160405180910390a3505b81546040518281526001600160a01b039091169084907f9063fcf9b5994653a0a7b032c31db9a1b0e1c5f720c586f51aef10b000ada060906020015b60405180910390a3505050565b6112696146ec565b600b54811061128b57604051634904786360e01b815260040160405180910390fd5b5f600b828154811061129f5761129f615921565b5f9182526020909120600a9091020190506003600482810154600160a01b900460ff16908111156112d2576112d261529a565b141580156112ff575060048082810154600160a01b900460ff16908111156112fc576112fc61529a565b14155b1561131d57604051632f6cc1af60e11b815260040160405180910390fd5b600781015460ff1661134257604051634065aaf160e11b815260040160405180910390fd5b5f8160020154426113539190615949565b6003830181905590506113668382614718565b505050565b6113736146ec565b601054811115611396576040516316d1272960e21b815260040160405180910390fd5b8060105f8282546113a7919061595c565b90915550505f80546040516001600160a01b039091169083908381818185875af1925050503d805f81146113f6576040519150601f19603f3d011682016040523d82523d5f602084013e6113fb565b606091505b505090508061141d576040516302c65f0760e01b815260040160405180910390fd5b5f8054604080518581526020810184905280820193909352516001600160a01b03909116917f99c04ba2fa3d3d44b7612d9e42929881bdeb0572c12385f460c5c90b7c2f04ac919081900360600190a25050565b600b8181548110611480575f80fd5b5f9182526020909120600a90910201805460018201546002830154600384015460048501546005860154600687015460078801546008890180546001600160a01b03998a169b5097999698959795851696600160a01b90950460ff9081169694959394921692916114f09061596f565b80601f016020809104026020016040519081016040528092919081815260200182805461151c9061596f565b80156115675780601f1061153e57610100808354040283529160200191611567565b820191905f5260205f20905b81548152906001019060200180831161154a57829003601f168201915b5050506009909301549192505060ff8116906001600160a01b03610100909104168c565b6115df60408051610140810182525f8082526020820181905291810182905260608101829052608081018290529060a082019081526020015f81526020015f81526020015f15158152602001606081525090565b600654821061160157604051634904786360e01b815260040160405180910390fd5b6006828154811061161457611614615921565b5f9182526020918290206040805161014081018252600990930290910180546001600160a01b0390811684526001820154948401949094526002810154918301919091526003810154606083015260048082015493841660808401529192909160a084019160ff600160a01b90910416908111156116945761169461529a565b60048111156116a5576116a561529a565b81526005820154602082015260068201546040820152600782015460ff16151560608201526008820180546080909201916116df9061596f565b80601f016020809104026020016040519081016040528092919081815260200182805461170b9061596f565b80156117565780601f1061172d57610100808354040283529160200191611756565b820191905f5260205f20905b81548152906001019060200180831161173957829003601f168201915b5050505050815250509050919050565b600e546060905f83821161177a575f611784565b611784848361595c565b90505f611791828461595c565b90505f8167ffffffffffffffff8111156117ad576117ad6159a7565b6040519080825280602002602001820160405280156117e657816020015b6117d36151da565b8152602001906001900390816117cb5790505b5090505f5b828110156118c957600e6117ff8286615949565b8154811061180f5761180f615921565b5f9182526020918290206040805160c08101825260069093029091018054835260018101546001600160a01b031693830193909352600283015490820152600382015460608201526004808301546080830152600583015491929160a084019160ff909116908111156118845761188461529a565b60048111156118955761189561529a565b815250508282815181106118ab576118ab615921565b602002602001018190525080806118c1906159bb565b9150506117eb565b5095945050505050565b6118db6146ec565b60065481106118fd57604051634904786360e01b815260040160405180910390fd5b5f6006828154811061191157611911615921565b5f918252602090912060099091020190506003600482810154600160a01b900460ff16908111156119445761194461529a565b14158015611971575060048082810154600160a01b900460ff169081111561196e5761196e61529a565b14155b1561198f57604051632f6cc1af60e11b815260040160405180910390fd5b600781015460ff166119b457604051634065aaf160e11b815260040160405180910390fd5b5f8160020154426119c59190615949565b6003830181905590506113668382614ae0565b6119e06146ec565b6006548110611a0257604051634904786360e01b815260040160405180910390fd5b5f60068281548110611a1657611a16615921565b5f918252602090912060099091020190506001600482810154600160a01b900460ff1690811115611a4957611a4961529a565b14611a675760405163369d55ef60e21b815260040160405180910390fd5b60048181015460405163cd7fada560e01b81526001600160a01b03909116918101829052309063cd7fada5906024015f604051808303815f87803b158015611aad575f80fd5b505af1925050508015611abe575060015b506001600160a01b0381165f908152600a6020526040902054600954811015611b2857600460098281548110611af657611af6615921565b5f9182526020909120600560069092020101805460ff19166001836004811115611b2257611b2261529a565b02179055505b6004830180546001600160a81b031916600160a21b1790556040516001600160a01b0383169085907f1b8cf3d0e01ebd7e78ed132930307c4b6cedb703dd521ed4910c4000515faf70905f90a350505050565b611b836146ec565b6006548110611ba557604051634904786360e01b815260040160405180910390fd5b5f60068281548110611bb957611bb9615921565b5f9182526020909120600990910201600781015490915060ff16611bf057604051634065aaf160e11b815260040160405180910390fd5b60078101805460ff1990811690915581546001600160a01b039081165f90815260086020526040808220805490941690935583549251929091169184917f8f1a3744946a8eb046190ae493ca46bf975c8610e25f5ed3e41e3a525175372991a35050565b611c5c6146ec565b6006548310611c7e57604051634904786360e01b815260040160405180910390fd5b5f60068481548110611c9257611c92615921565b5f9182526020909120600990910201600781015490915060ff16611cc957604051634065aaf160e11b815260040160405180910390fd5b8215611cd757600181018390555b8115611d0757600a821015611cff5760405163252847a560e11b815260040160405180910390fd5b600281018290555b837f5bfe4dba5e7ad66f0209e6d2a98fabea0857f9f1564838adb28dcda2ad8ed05982600101548360020154604051610e11929190918252602082015260400190565b60068181548110611d59575f80fd5b5f9182526020909120600990910201805460018201546002830154600384015460048501546005860154600687015460078801546008890180546001600160a01b03998a169b5097999698959795851696600160a01b90950460ff908116969495939492169291611dc99061596f565b80601f0160208091040260200160405190810160405280929190818152602001828054611df59061596f565b8015611e405780601f10611e1757610100808354040283529160200191611e40565b820191905f5260205f20905b815481529060010190602001808311611e2357829003601f168201915b505050505090508a565b6060600b805480602002602001604051908101604052809291908181526020015f905b8282101561201a575f8481526020908190206040805161018081018252600a860290920180546001600160a01b0390811684526001820154948401949094526002810154918301919091526003810154606083015260048082015493841660808401529192909160a0840191600160a01b900460ff1690811115611ef357611ef361529a565b6004811115611f0457611f0461529a565b81526005820154602082015260068201546040820152600782015460ff1615156060820152600882018054608090920191611f3e9061596f565b80601f0160208091040260200160405190810160405280929190818152602001828054611f6a9061596f565b8015611fb55780601f10611f8c57610100808354040283529160200191611fb5565b820191905f5260205f20905b815481529060010190602001808311611f9857829003601f168201915b5050509183525050600982015460209091019060ff166001811115611fdc57611fdc61529a565b6001811115611fed57611fed61529a565b81526009919091015461010090046001600160a01b03166020918201529082526001929092019101611e6d565b50505050905090565b61202b6146ec565b600654811061204d57604051634904786360e01b815260040160405180910390fd5b5f6006828154811061206157612061615921565b5f9182526020909120600990910201600781015490915060ff1661209857604051634065aaf160e11b815260040160405180910390fd5b6001600482810154600160a01b900460ff16908111156120ba576120ba61529a565b036119b457604051626dabed60e11b815260040160405180910390fd5b6120df6146ec565b600b54811061210157604051634904786360e01b815260040160405180910390fd5b5f600b828154811061211557612115615921565b5f9182526020909120600a90910201600781015490915060ff1661214c57604051634065aaf160e11b815260040160405180910390fd5b6001600482810154600160a01b900460ff169081111561216e5761216e61529a565b0361134257604051626dabed60e11b815260040160405180910390fd5b612193614e78565b3330148015906121ad57505f546001600160a01b03163314155b156121cb5760405163060a6aeb60e51b815260040160405180910390fd5b60065481106121ed57604051634904786360e01b815260040160405180910390fd5b5f6006828154811061220157612201615921565b5f9182526020909120600990910201600781015490915060ff1661227c576004810180546003919060ff60a01b1916600160a01b830217905550815f80516020615c6483398151915260405161226e9060208082526003908201526227a32360e91b604082015260600190565b60405180910390a250612665565b6005545f9081906001600160a01b0316612383574790508260010154811015612327576004830180546003919060ff60a01b1916600160a01b835b02179055506001830154604080519182526020820183905285917ffcca3733d1a27d113bb2900bde06a7058d54a421b1353db012ca9844ef7787b3910160405180910390a2835f80516020615c64833981519152604051612317906159d3565b60405180910390a2505050612665565b825460018401546040516001600160a01b03909216915f81818185875af1925050503d805f8114612373576040519150601f19603f3d011682016040523d82523d5f602084013e612378565b606091505b505080925050612495565b6005546040516370a0823160e01b81523060048201526001600160a01b03909116906370a0823190602401602060405180830381865afa1580156123c9573d5f803e3d5ffd5b505050506040513d601f19601f820116820180604052508101906123ed91906158eb565b90508260010154811015612417576004830180546003919060ff60a01b1916600160a01b836122b7565b6005548354600185015460405163a9059cbb60e01b81526001600160a01b039283166004820152602481019190915291169063a9059cbb906044016020604051808303815f875af115801561246e573d5f803e3d5ffd5b505050506040513d601f19601f820116820180604052508101906124929190615902565b91505b816124e4576004838101805460ff60a01b1916600360a01b179055604080516020808252810192909252632c2322a960e11b9082015284905f80516020615c6483398151915290606001612317565b6001836006015f8282546124f89190615949565b909155505060018301546005840180545f90612515908490615949565b9091555050600483018054600160a11b60ff60a01b198216179091556001600160a01b0316156125d55760048301546001600160a01b03165f908152600a60205260409020546009548110156125d35760026009828154811061257a5761257a615921565b5f9182526020909120600560069092020101805460ff191660018360048111156125a6576125a661529a565b021790555042600982815481106125bf576125bf615921565b905f5260205f209060060201600401819055505b505b8254600184015460068501546040516001600160a01b039093169287927fb365da638d49559818181a54a79a7b32cf848d6b298420f0b8cd009babc9a76d9261262692918252602082015260400190565b60405180910390a3600783015460ff1615612661575f83600201544261264c9190615949565b60038501819055905061265f8582614ae0565b505b5050505b61266e60018055565b50565b6005546001600160a01b031661269a576040516379d93f4960e01b815260040160405180910390fd5b805f036126ba57604051631f2a200560e01b815260040160405180910390fd5b6005546040516323b872dd60e01b8152336004820152306024820152604481018390525f916001600160a01b0316906323b872dd906064016020604051808303815f875af115801561270e573d5f803e3d5ffd5b505050506040513d601f19601f820116820180604052508101906127329190615902565b905080612752576040516302c65f0760e01b815260040160405180910390fd5b6005546040516370a0823160e01b81523060048201525f916001600160a01b0316906370a0823190602401602060405180830381865afa158015612798573d5f803e3d5ffd5b505050506040513d601f19601f820116820180604052508101906127bc91906158eb565b60055460408051868152602081018490529293506001600160a01b039091169133917f2fe9925fcbf158a678a4e698791a920b0011d8f2ea8f50d63ab43311a399e28f9101611254565b61280e6146ec565b600580546001600160a01b0319166001600160a01b0383169081179091556040517fcb0aeffe884eb88fb2a31a2f3e4bd1d2763bdee48ba93b28c6e87501228cf743905f90a250565b61285f6146ec565b6128685f614ea2565b565b5f6128736146ec565b6001600160a01b03861661289a5760405163ae9954c360e01b815260040160405180910390fd5b6001600160a01b0386165f9081526008602052604090205460ff16156128d35760405163119b4fd360e11b815260040160405180910390fd5b6006546032116128f6576040516366a662b960e01b815260040160405180910390fd5b5f80841161290657600354612908565b835b90505f80841161291a5760045461291c565b835b9050600a8110156129405760405163252847a560e11b815260040160405180910390fd5b6006805460408051610140810182526001600160a01b038c168152602081018690529081018490525f60608201819052608082018190529195509060a082019081526020015f81526020015f815260200160011515815260200189898080601f0160208091040260200160405190810160405280939291908181526020018383808284375f920182905250939094525050835460018082018655948252602091829020845160099092020180546001600160a01b03199081166001600160a01b039384161782559285015195810195909555604084015160028601556060840151600386015560808401516004808701805494851692909316918217835560a0860151959695945091926001600160a81b0319161790600160a01b908490811115612a6d57612a6d61529a565b021790555060c0820151600582015560e0820151600682015561010082015160078201805460ff19169115159190911790556101208201516008820190612ab49082615a3d565b5050506001600160a01b0388165f818152600760209081526040808320879055600890915290819020805460ff191660011790555184907fc4d3732ea2ab8d2a709b3f2b985110d0e9f069f6c9a450294f369ff882b4d03e90612b1e908b908b9088908890615b21565b60405180910390a3505095945050505050565b612b396151da565b6009548210612b5b57604051634904786360e01b815260040160405180910390fd5b60098281548110612b6e57612b6e615921565b5f9182526020918290206040805160c08101825260069093029091018054835260018101546001600160a01b031693830193909352600283015490820152600382015460608201526004808301546080830152600583015491929160a084019160ff90911690811115612be357612be361529a565b6004811115612bf457612bf461529a565b90525092915050565b612c056146ec565b805f03612c2557604051631f2a200560e01b815260040160405180910390fd5b60038190556004546040805183815260208101929092527fc7f44c66d5272c4c427a79b701e44cf050932760038bf62e811ef6c2dcb739dc9101610e83565b6005545f906001600160a01b0316612c7b57505f90565b6005546040516370a0823160e01b81523060048201526001600160a01b03909116906370a0823190602401602060405180830381865afa158015612cc1573d5f803e3d5ffd5b505050506040513d601f19601f82011682018060405250810190612ce591906158eb565b905090565b600e8181548110612cf9575f80fd5b5f9182526020909120600690910201805460018201546002830154600384015460048501546005909501549395506001600160a01b0390921693909260ff1686565b60606006805480602002602001604051908101604052809291908181526020015f905b8282101561201a575f84815260209081902060408051610140810182526009860290920180546001600160a01b0390811684526001820154948401949094526002810154918301919091526003810154606083015260048082015493841660808401529192909160a0840191600160a01b900460ff1690811115612de457612de461529a565b6004811115612df557612df561529a565b81526005820154602082015260068201546040820152600782015460ff1615156060820152600882018054608090920191612e2f9061596f565b80601f0160208091040260200160405190810160405280929190818152602001828054612e5b9061596f565b8015612ea65780601f10612e7d57610100808354040283529160200191612ea6565b820191905f5260205f20905b815481529060010190602001808311612e8957829003601f168201915b50505050508152505081526020019060010190612d5e565b600b548110612ee057604051634904786360e01b815260040160405180910390fd5b5f600b8281548110612ef457612ef4615921565b5f9182526020909120600a90910201600781015490915060ff16612f2b57604051634065aaf160e11b815260040160405180910390fd5b5f600982015460ff166001811115612f4557612f4561529a565b14612f6357604051631ebaeb1960e11b815260040160405180910390fd5b345f03612f8357604051631f2a200560e01b815260040160405180910390fd5b5f828152600d602052604081208054349290612fa0908490615949565b90915550505f828152600d602090815260409182902054825134815291820152339184917f1ffbe8b2976c73ceb1a068bad3da24e5141bf232977304fd0920654afd89a1c5910160405180910390a35050565b5f6001600160a01b03861661301b5760405163f258f18560e01b815260040160405180910390fd5b825f0361303b57604051631f2a200560e01b815260040160405180910390fd5b600a82101561305d5760405163252847a560e11b815260040160405180910390fd5b600b54606411613080576040516366a662b960e01b815260040160405180910390fd5b604051636eb1769f60e11b815233600482015230602482015283906001600160a01b0388169063dd62ed3e90604401602060405180830381865afa1580156130ca573d5f803e3d5ffd5b505050506040513d601f19601f820116820180604052508101906130ee91906158eb565b101561310d5760405163349609a360e01b815260040160405180910390fd5b50600b80546040805161018081018252338152602081018690529081018490525f606082018190526080820181905291929160a082019081526020015f81526020015f815260200160011515815260200187878080601f0160208091040260200160405190810160405280939291908181526020018383808284375f92019190915250505090825250602001600181526001600160a01b03808a166020928301528354600181810186555f958652948390208451600a9092020180549183166001600160a01b031992831617815592840151948301949094556040830151600283015560608301516003830155608083015160048084018054929093169582168617835560a085015194959394936001600160a81b031990921690911790600160a01b9084908111156132425761324261529a565b021790555060c0820151600582015560e0820151600682015561010082015160078201805460ff191691151591909117905561012082015160088201906132899082615a3d565b5061014082015160098201805460ff1916600183818111156132ad576132ad61529a565b02179055506101609190910151600990910180546001600160a01b0390921661010002610100600160a81b0319909216919091179055335f818152600c60209081526040808320805460018181018355918552929093209091018490555183917f5cb9c0ff0112fbfc36bb83795592ac2c73b0bceb70ac8c143f5980b59b3e97d891613343918a918a918a918a91908f90615b47565b60405180910390a395945050505050565b60098181548110612cf9575f80fd5b5f825f0361338457604051631f2a200560e01b815260040160405180910390fd5b600a8210156133a65760405163252847a560e11b815260040160405180910390fd5b823410156133c757604051636b7349f360e11b815260040160405180910390fd5b600b546064116133ea576040516366a662b960e01b815260040160405180910390fd5b50600b80546040805161018081018252338152602081018690529081018490525f606082018190526080820181905291929160a082019081526020015f81526020015f815260200160011515815260200187878080601f0160208091040260200160405190810160405280939291908181526020018383808284375f92018290525093855250506020909201915081525f6020918201819052835460018082018655948252908290208351600a9092020180546001600160a01b03199081166001600160a01b039384161782559284015194810194909455604083015160028501556060830151600385015560808301516004808601805494851692909316918217835560a0850151949594936001600160a81b03191690911790600160a01b90849081111561351c5761351c61529a565b021790555060c0820151600582015560e0820151600682015561010082015160078201805460ff191691151591909117905561012082015160088201906135639082615a3d565b5061014082015160098201805460ff1916600183818111156135875761358761529a565b02179055506101609190910151600990910180546001600160a01b0390921661010002610100600160a81b0319909216919091179055335f818152600c60209081526040808320805460018101825590845282842001859055848352600d9091528082203490555183917f5cb9c0ff0112fbfc36bb83795592ac2c73b0bceb70ac8c143f5980b59b3e97d891613627918a918a918a918a91908190615b47565b60405180910390a360408051348082526020820152339183917f1ffbe8b2976c73ceb1a068bad3da24e5141bf232977304fd0920654afd89a1c5910160405180910390a3949350505050565b61367b6146ec565b6040513060248201526001600160a01b03821660448201525f9081906101679060640160408051601f198184030181529181526020820180516001600160e01b031663248a35ef60e11b179052516136d39190615b91565b5f604051808303815f865af19150503d805f811461370c576040519150601f19603f3d011682016040523d82523d5f602084013e613711565b606091505b50915091508161373457604051638539d4a160e01b815260040160405180910390fd5b5f818060200190518101906137499190615bc2565b9050600781900b6016148015906137665750600781900b61011a14155b1561378457604051638539d4a160e01b815260040160405180910390fd5b6040516001600160a01b038516907fbbbf805ef99ca7d0b7d2cc769719f2a281c9b3331a3642efa75a712e3094a166905f90a250505050565b6009546060905f8382116137d1575f6137db565b6137db848361595c565b90505f6137e8828461595c565b90505f8167ffffffffffffffff811115613804576138046159a7565b60405190808252806020026020018201604052801561383d57816020015b61382a6151da565b8152602001906001900390816138225790505b5090505f5b828110156118c95760096138568286615949565b8154811061386657613866615921565b5f9182526020918290206040805160c08101825260069093029091018054835260018101546001600160a01b031693830193909352600283015490820152600382015460608201526004808301546080830152600583015491929160a084019160ff909116908111156138db576138db61529a565b60048111156138ec576138ec61529a565b8152505082828151811061390257613902615921565b60200260200101819052508080613918906159bb565b915050613842565b600c602052815f5260405f208181548110613939575f80fd5b905f5260205f20015f91509150505481565b33301461396b57604051635f0d793360e11b815260040160405180910390fd5b61397481614ef1565b5050565b6139806151da565b600e5482106139a257604051634904786360e01b815260040160405180910390fd5b600e8281548110612b6e57612b6e615921565b60408051610180810182525f8082526020820181905291810182905260608082018390526080820183905260a0820183905260c0820183905260e0820183905261010082018390526101208201526101408101829052610160810191909152600b548210613a3657604051634904786360e01b815260040160405180910390fd5b600b8281548110613a4957613a49615921565b5f9182526020918290206040805161018081018252600a90930290910180546001600160a01b0390811684526001820154948401949094526002810154918301919091526003810154606083015260048082015493841660808401529192909160a084019160ff600160a01b9091041690811115613ac957613ac961529a565b6004811115613ada57613ada61529a565b81526005820154602082015260068201546040820152600782015460ff1615156060820152600882018054608090920191613b149061596f565b80601f0160208091040260200160405190810160405280929190818152602001828054613b409061596f565b8015613b8b5780601f10613b6257610100808354040283529160200191613b8b565b820191905f5260205f20905b815481529060010190602001808311613b6e57829003601f168201915b5050509183525050600982015460209091019060ff166001811115613bb257613bb261529a565b6001811115613bc357613bc361529a565b81526009919091015461010090046001600160a01b031660209091015292915050565b613bee6146ec565b6005546001600160a01b0316613c965747811115613c1f576040516316d1272960e21b815260040160405180910390fd5b5f80546040516001600160a01b039091169083908381818185875af1925050503d805f8114613c69576040519150601f19603f3d011682016040523d82523d5f602084013e613c6e565b606091505b5050905080613c90576040516302c65f0760e01b815260040160405180910390fd5b50613dd8565b6005546040516370a0823160e01b81523060048201525f916001600160a01b0316906370a0823190602401602060405180830381865afa158015613cdc573d5f803e3d5ffd5b505050506040513d601f19601f82011682018060405250810190613d0091906158eb565b905080821115613d23576040516316d1272960e21b815260040160405180910390fd5b6005545f906001600160a01b031663a9059cbb613d475f546001600160a01b031690565b6040516001600160e01b031960e084901b1681526001600160a01b039091166004820152602481018690526044016020604051808303815f875af1158015613d91573d5f803e3d5ffd5b505050506040513d601f19601f82011682018060405250810190613db59190615902565b905080613dd5576040516302c65f0760e01b815260040160405180910390fd5b50505b5f546001600160a01b03166001600160a01b03167f1b5775af7e7537be20684ccf94b9c6f4b180dabad653f5b57a234a9c6a3db40b82604051613e1d91815260200190565b60405180910390a250565b613e30614e78565b333014801590613e4a57505f546001600160a01b03163314155b15613e685760405163060a6aeb60e51b815260040160405180910390fd5b600b548110613e8a57604051634904786360e01b815260040160405180910390fd5b5f600b8281548110613e9e57613e9e615921565b5f9182526020909120600a90910201600781015490915060ff16613f0b576004810180546003919060ff60a01b1916600160a01b830217905550815f80516020615c8483398151915260405161226e9060208082526003908201526227a32360e91b604082015260600190565b5f80600983015460ff166001811115613f2657613f2661529a565b03614002575f838152600d60205260409020546001830154811015613fb55760048301805460ff60a01b1916600360a01b17905560018301546040805191825260208201839052805186927f9480d65ada64c94334ba58dde5b93f193b164deed9dc11ec59adcb07acaa66e892908290030190a2835f80516020615c84833981519152604051612317906159d3565b60018301545f858152600d602052604081208054909190613fd790849061595c565b90915550506001830154601080545f90613ff2908490615949565b90915550600192506142a8915050565b60098201548254604051636eb1769f60e11b81526001600160a01b0391821660048201523060248201525f9261010090049091169063dd62ed3e90604401602060405180830381865afa15801561405b573d5f803e3d5ffd5b505050506040513d601f19601f8201168201806040525081019061407f91906158eb565b905082600101548110156141155760048301805460ff60a01b1916600360a01b17905560018301546040805191825260208201839052805186927f9480d65ada64c94334ba58dde5b93f193b164deed9dc11ec59adcb07acaa66e892908290030190a2835f80516020615c8483398151915260405161231790602080825260039082015262414c5760e81b604082015260600190565b600983015483546040516370a0823160e01b81526001600160a01b0391821660048201525f926101009004909116906370a0823190602401602060405180830381865afa158015614168573d5f803e3d5ffd5b505050506040513d601f19601f8201168201806040525081019061418c91906158eb565b9050836001015481101561421b5760048401805460ff60a01b1916600360a01b17905560018401546040805191825260208201839052805187927f9480d65ada64c94334ba58dde5b93f193b164deed9dc11ec59adcb07acaa66e892908290030190a2845f80516020615c8483398151915260405161420a906159d3565b60405180910390a250505050612665565b6009840154845460018601546040516323b872dd60e01b81526001600160a01b039283166004820152306024820152604481019190915261010090920416906323b872dd906064016020604051808303815f875af115801561427f573d5f803e3d5ffd5b505050506040513d601f19601f820116820180604052508101906142a39190615902565b925050505b80614301576004828101805460ff60a01b1916600360a01b179055604080516020808252810192909252632c2322a960e11b9082015283905f80516020615c848339815191529060600160405180910390a25050612665565b6001826006015f8282546143159190615949565b909155505060018201546005830180545f90614332908490615949565b9091555050600482018054600160a11b60ff60a01b198216179091556001600160a01b0316156143f25760048201546001600160a01b03165f908152600f6020526040902054600e548110156143f0576002600e828154811061439757614397615921565b5f9182526020909120600560069092020101805460ff191660018360048111156143c3576143c361529a565b021790555042600e82815481106143dc576143dc615921565b905f5260205f209060060201600401819055505b505b8154600183015460068401546040516001600160a01b039093169286927ff0e32a083261081f413d01c8e098d7c1649b7ffb9f47c562121e4696ddd29a3d9261444392918252602082015260400190565b60405180910390a3600782015460ff161561447c575f8260020154426144699190615949565b6003840181905590506126618482614718565b505061266e60018055565b61448f6146ec565b62061a808110156144b357604051631e55f9c360e01b815260040160405180910390fd5b600255565b6144c06146ec565b6001600160a01b0381166144ee57604051631e4fbdf760e01b81525f60048201526024015b60405180910390fd5b61266e81614ea2565b6001600160a01b0381165f908152600c602090815260409182902080548351818402810184019094528084526060939283018282801561455457602002820191905f5260205f20905b815481526020019060010190808311614540575b50505050509050919050565b345f0361458057604051631f2a200560e01b815260040160405180910390fd5b6040805134815247602082015233917f3dcb1a97c343d0c00e1809c139e8b8348116c0c82c850e0c82d54e91fb36e8b8910160405180910390a2565b600b5483106145de57604051634904786360e01b815260040160405180910390fd5b5f600b84815481106145f2576145f2615921565b5f9182526020909120600a90910201600781015490915060ff1661462957604051634065aaf160e11b815260040160405180910390fd5b80546001600160a01b0316331480159061464d57505f546001600160a01b03163314155b1561466b5760405163060a6aeb60e51b815260040160405180910390fd5b821561467957600181018390555b81156146a957600a8210156146a15760405163252847a560e11b815260040160405180910390fd5b600281018290555b837f6f6a7fe5088cede257ecba456c6bd063ac27a8f7ed056bdc49ea01c8d2d2e53482600101548360020154604051610e11929190918252602082015260400190565b5f546001600160a01b031633146128685760405163118cdaa760e01b81523360048201526024016144e5565b5f600b838154811061472c5761472c615921565b905f5260205f2090600a020190505f600254605761474a9190615bdb565b9050804710156147a3576004820180546003919060ff60a01b1916600160a01b830217905550835f80516020615c84833981519152604051610e119060208082526003908201526247415360e81b604082015260600190565b5f6147b084600254614ff5565b905080614829576147c2600185615949565b93506147d084600254614ff5565b9050806148295760048301805460ff60a01b1916600360a01b17905560405184815285907f5686300911353c01fcd25b5b20cc4e6cfb145ca4455f7a50620017ba18fe9f4b906020015b60405180910390a25050505050565b6040805160248082018890528251808303909101815260449091019091526020810180516001600160e01b03166374481b2b60e11b1790526002545f908190614877903090899084876150b7565b91509150601660070b8260070b146148ea576004860180546003919060ff60a01b1916600160a01b830217905550875f80516020615c848339815191526040516148d89060208082526003908201526229a1a360e91b604082015260600190565b60405180910390a25050505050505050565b600486810180546001600160a01b038481166001600160a81b03199092168217600160a01b17909255600389018a9055600e80546040805160c0810182528e8152602081019485529081018d815242606083019081525f60808401818152600160a0860181815287820189559790925284517fbb7b4a454dc3493923482f07822329ed19e8244eff582cc204f8554c3620c3fd6006880290810191825598517fbb7b4a454dc3493923482f07822329ed19e8244eff582cc204f8554c3620c3fe8a0180546001600160a01b03191691909b161790995592517fbb7b4a454dc3493923482f07822329ed19e8244eff582cc204f8554c3620c3ff88015590517fbb7b4a454dc3493923482f07822329ed19e8244eff582cc204f8554c3620c40087015590517fbb7b4a454dc3493923482f07822329ed19e8244eff582cc204f8554c3620c40186015592517fbb7b4a454dc3493923482f07822329ed19e8244eff582cc204f8554c3620c4029094018054929691959493909260ff1916918490811115614a7857614a7861529a565b021790555050506001600160a01b0382165f818152600f602052604090819020839055518a907f26a508a9e4ce02bb5e1d649dee4c6d7a06e292eb681feacedc091e34621cb1de90614acd908c815260200190565b60405180910390a3505050505050505050565b5f60068381548110614af457614af4615921565b905f5260205f20906009020190505f6002546057614b129190615bdb565b905080471015614b6b576004820180546003919060ff60a01b1916600160a01b830217905550835f80516020615c64833981519152604051610e119060208082526003908201526247415360e81b604082015260600190565b5f614b7884600254614ff5565b905080614be657614b8a600185615949565b9350614b9884600254614ff5565b905080614be65760048301805460ff60a01b1916600360a01b17905560405184815285907fdad1775463f615e853a4d9ee46227741351e40998575887b820241bd361744829060200161481a565b6040805160248082018890528251808303909101815260449091019091526020810180516001600160e01b0316632fdf929f60e11b1790526002545f908190614c34903090899084876150b7565b91509150601660070b8260070b14614c95576004860180546003919060ff60a01b1916600160a01b830217905550875f80516020615c648339815191526040516148d89060208082526003908201526229a1a360e91b604082015260600190565b600486810180546001600160a01b038481166001600160a81b03199092168217600160a01b17909255600389018a9055600980546040805160c0810182528e8152602081019485529081018d815242606083019081525f60808401818152600160a0860181815287820189559790925284517f6e1540171b6c0c960b71a7020d9f60077f6af931a8bbf590da0223dacf75c7af6006880290810191825598517f6e1540171b6c0c960b71a7020d9f60077f6af931a8bbf590da0223dacf75c7b08a0180546001600160a01b03191691909b161790995592517f6e1540171b6c0c960b71a7020d9f60077f6af931a8bbf590da0223dacf75c7b188015590517f6e1540171b6c0c960b71a7020d9f60077f6af931a8bbf590da0223dacf75c7b287015590517f6e1540171b6c0c960b71a7020d9f60077f6af931a8bbf590da0223dacf75c7b386015592517f6e1540171b6c0c960b71a7020d9f60077f6af931a8bbf590da0223dacf75c7b49094018054929691959493909260ff1916918490811115614e2357614e2361529a565b021790555050506001600160a01b0382165f818152600a602052604090819020839055518a907fbb051907c93213e5ff62ed7878fd8eb20c59968b150e38d9ab8f09cecf593a9790614acd908c815260200190565b600260015403614e9b57604051633ee5aeb560e01b815260040160405180910390fd5b6002600155565b5f80546001600160a01b038381166001600160a01b0319831681178455604051919092169283917f8be0079c531659141344cd1fd0a4f28419497f9722a3daafe3b4186f6b6457e09190a35050565b604080516001600160a01b03831660248083019190915282518083039091018152604490910182526020810180516001600160e01b0316631cb508e560e21b17905290515f918291829161016b91614f499190615b91565b5f604051808303815f865af19150503d805f8114614f82576040519150601f19603f3d011682016040523d82523d5f602084013e614f87565b606091505b509150915081614fd95760405162461bcd60e51b815260206004820152601a60248201527f4853533a2064656c6574655363686564756c65206661696c656400000000000060448201526064016144e5565b80806020019051810190614fed9190615bc2565b949350505050565b6040805160248101849052604480820184905282518083039091018152606490910182526020810180516001600160e01b031663dfb4a99960e01b17905290515f918291829161016b916150499190615b91565b5f60405180830381855afa9150503d805f8114615081576040519150601f19603f3d011682016040523d82523d5f602084013e615086565b606091505b50915091508161509a575f92505050610f0a565b808060200190518101906150ae9190615902565b95945050505050565b5f805f8061016b6001600160a01b0316636f5bfde860e01b8a8a8a8a8a6040516024016150e8959493929190615bf2565b60408051601f198184030181529181526020820180516001600160e01b03166001600160e01b03199094169390931790925290516151269190615b91565b5f604051808303815f865af19150503d805f811461515f576040519150601f19603f3d011682016040523d82523d5f602084013e615164565b606091505b5091509150816151b65760405162461bcd60e51b815260206004820152601860248201527f4853533a207363686564756c6543616c6c206661696c6564000000000000000060448201526064016144e5565b808060200190518101906151ca9190615c2e565b909a909950975050505050505050565b6040518060c001604052805f81526020015f6001600160a01b031681526020015f81526020015f81526020015f81526020015f600481111561521e5761521e61529a565b905290565b6001600160a01b038116811461266e575f80fd5b5f8060408385031215615248575f80fd5b823561525381615223565b946020939093013593505050565b5f60208284031215615271575f80fd5b5035919050565b5f60208284031215615288575f80fd5b813561529381615223565b9392505050565b634e487b7160e01b5f52602160045260245ffd5b600581106152be576152be61529a565b9052565b5f5b838110156152dc5781810151838201526020016152c4565b50505f910152565b5f81518084526152fb8160208601602086016152c2565b601f01601f19169290920160200192915050565b600281106152be576152be61529a565b5f60018060a01b03808f1683528d60208401528c60408401528b6060840152808b16608084015261535360a084018b6152ae565b8860c08401528760e084015286151561010084015261018061012084015261537f6101808401876152e4565b915061538f61014084018661530f565b808416610160840152509d9c50505050505050505050505050565b80516001600160a01b031682525f61014060208301516020850152604083015160408501526060830151606085015260808301516153f360808601826001600160a01b03169052565b5060a083015161540660a08601826152ae565b5060c083015160c085015260e083015160e08501526101008084015161542f8287018215159052565b5050610120808401518282870152615449838701826152e4565b9695505050505050565b602081525f61529360208301846153aa565b8051825260018060a01b03602082015116602083015260408101516040830152606081015160608301526080810151608083015260a081015161136660a08401826152ae565b602080825282518282018190525f9190848201906040850190845b818110156154ec576154d9838551615465565b9284019260c092909201916001016154c6565b50909695505050505050565b5f805f6060848603121561550a575f80fd5b505081359360208301359350604090920135919050565b6001600160a01b038b81168252602082018b9052604082018a905260608201899052871660808201525f61014061555b60a08401896152ae565b8660c08401528560e084015284151561010084015280610120840152615583818401856152e4565b9d9c50505050505050505050505050565b80516001600160a01b031682525f61018060208301516020850152604083015160408501526060830151606085015260808301516155dd60808601826001600160a01b03169052565b5060a08301516155f060a08601826152ae565b5060c083015160c085015260e083015160e0850152610100808401516156198287018215159052565b5050610120808401518282870152615633838701826152e4565b925050506101408084015161564a8287018261530f565b5050610160928301516001600160a01b03169390920192909252919050565b5f602080830181845280855180835260408601915060408160051b87010192508387015f5b828110156156bc57603f198886030184526156aa858351615594565b9450928501929085019060010161568e565b5092979650505050505050565b5f8083601f8401126156d9575f80fd5b50813567ffffffffffffffff8111156156f0575f80fd5b602083019150836020828501011115615707575f80fd5b9250929050565b5f805f805f60808688031215615722575f80fd5b853561572d81615223565b9450602086013567ffffffffffffffff811115615748575f80fd5b615754888289016156c9565b9699909850959660408101359660609091013595509350505050565b60c08101610f0a8284615465565b8681526001600160a01b038616602082015260408101859052606081018490526080810183905260c081016157b660a08301846152ae565b979650505050505050565b5f602080830181845280855180835260408601915060408160051b87010192508387015f5b828110156156bc57603f198886030184526158028583516153aa565b945092850192908501906001016157e6565b5f805f8060608587031215615827575f80fd5b843567ffffffffffffffff81111561583d575f80fd5b615849878288016156c9565b90989097506020870135966040013595509350505050565b602080825282518282018190525f9190848201906040850190845b818110156154ec5761588f838551615465565b9284019260c0929092019160010161587c565b602081525f6152936020830184615594565b602080825282518282018190525f9190848201906040850190845b818110156154ec578351835292840192918401916001016158cf565b5f602082840312156158fb575f80fd5b5051919050565b5f60208284031215615912575f80fd5b81518015158114615293575f80fd5b634e487b7160e01b5f52603260045260245ffd5b634e487b7160e01b5f52601160045260245ffd5b80820180821115610f0a57610f0a615935565b81810381811115610f0a57610f0a615935565b600181811c9082168061598357607f821691505b6020821081036159a157634e487b7160e01b5f52602260045260245ffd5b50919050565b634e487b7160e01b5f52604160045260245ffd5b5f600182016159cc576159cc615935565b5060010190565b60208082526003908201526210905360ea1b604082015260600190565b601f821115611366575f81815260208120601f850160051c81016020861015615a165750805b601f850160051c820191505b81811015615a3557828155600101615a22565b505050505050565b815167ffffffffffffffff811115615a5757615a576159a7565b615a6b81615a65845461596f565b846159f0565b602080601f831160018114615a9e575f8415615a875750858301515b5f19600386901b1c1916600185901b178555615a35565b5f85815260208120601f198616915b82811015615acc57888601518255948401946001909101908401615aad565b5085821015615ae957878501515f19600388901b60f8161c191681555b5050505050600190811b01905550565b81835281816020850137505f828201602090810191909152601f909101601f19169091010190565b606081525f615b34606083018688615af9565b6020830194909452506040015292915050565b60a081525f615b5a60a08301888a615af9565b9050856020830152846040830152615b75606083018561530f565b6001600160a01b03929092166080919091015295945050505050565b5f8251615ba28184602087016152c2565b9190910192915050565b8051600781900b8114615bbd575f80fd5b919050565b5f60208284031215615bd2575f80fd5b61529382615bac565b8082028115828204841417610f0a57610f0a615935565b60018060a01b038616815284602082015283604082015267ffffffffffffffff8316606082015260a060808201525f6157b660a08301846152e4565b5f8060408385031215615c3f575f80fd5b615c4883615bac565b91506020830151615c5881615223565b80915050925092905056fe8b312a4045319f1ef3ac69d41643264f6eb97e250838bba76a40ba37afc9f3748d9a1426e57131f458a6ba166c9e97ca604fb106ec9879187bf7a467ee64cf0da2646970667358221220ec49f7c7e13e210b2d290cd383ee12dd27a41bb19c639545e2bf12cc41b3c96a64736f6c63430008140033",
  "linkReferences": {},
  "deployedLinkReferences": {},
  "immutableReferences": {},
  "inputSourceName": "project/contracts/hedera/SPARKPayrollVault.sol",
  "buildInfoId": "solc-0_8_20-e6a5a5b14d536acc9d4c566ff1ce6b5e42600343"
}